{
	"UserAdmi.sol": {
		"UserAdmin": {
			"abi": [
				{
					"inputs": [
						{
							"internalType": "uint256",
							"name": "",
							"type": "uint256"
						}
					],
					"name": "listOfUsers",
					"outputs": [
						{
							"internalType": "string",
							"name": "name",
							"type": "string"
						},
						{
							"internalType": "uint256",
							"name": "age",
							"type": "uint256"
						}
					],
					"stateMutability": "view",
					"type": "function"
				},
				{
					"inputs": [
						{
							"internalType": "string",
							"name": "_name",
							"type": "string"
						}
					],
					"name": "retrive",
					"outputs": [
						{
							"internalType": "uint256",
							"name": "",
							"type": "uint256"
						}
					],
					"stateMutability": "view",
					"type": "function"
				},
				{
					"inputs": [
						{
							"internalType": "string",
							"name": "_name",
							"type": "string"
						},
						{
							"internalType": "uint256",
							"name": "_age",
							"type": "uint256"
						}
					],
					"name": "storeNewUser",
					"outputs": [],
					"stateMutability": "nonpayable",
					"type": "function"
				},
				{
					"inputs": [
						{
							"internalType": "string",
							"name": "",
							"type": "string"
						}
					],
					"name": "usersBalances",
					"outputs": [
						{
							"internalType": "uint256",
							"name": "",
							"type": "uint256"
						}
					],
					"stateMutability": "view",
					"type": "function"
				}
			],
			"devdoc": {
				"kind": "dev",
				"methods": {},
				"version": 1
			},
			"evm": {
				"assembly": "    /* \"UserAdmi.sol\":60:610  contract UserAdmin{... */\n  mstore(0x40, 0x80)\n  callvalue\n  dup1\n  iszero\n  tag_1\n  jumpi\n  0x00\n  dup1\n  revert\ntag_1:\n  pop\n  dataSize(sub_0)\n  dup1\n  dataOffset(sub_0)\n  0x00\n  codecopy\n  0x00\n  return\nstop\n\nsub_0: assembly {\n        /* \"UserAdmi.sol\":60:610  contract UserAdmin{... */\n      mstore(0x40, 0x80)\n      callvalue\n      dup1\n      iszero\n      tag_1\n      jumpi\n      0x00\n      dup1\n      revert\n    tag_1:\n      pop\n      jumpi(tag_2, lt(calldatasize, 0x04))\n      shr(0xe0, calldataload(0x00))\n      dup1\n      0x80ca3fac\n      eq\n      tag_3\n      jumpi\n      dup1\n      0x8a888500\n      eq\n      tag_4\n      jumpi\n      dup1\n      0xb018e0dd\n      eq\n      tag_5\n      jumpi\n      dup1\n      0xe46bb76f\n      eq\n      tag_6\n      jumpi\n    tag_2:\n      0x00\n      dup1\n      revert\n        /* \"UserAdmi.sol\":275:479  function storeNewUser(string memory _name, uint256 _age) public {... */\n    tag_3:\n      tag_7\n      tag_8\n      calldatasize\n      0x04\n      tag_9\n      jump\t// in\n    tag_8:\n      tag_10\n      jump\t// in\n    tag_7:\n      stop\n        /* \"UserAdmi.sol\":219:266  mapping(string => uint256) public usersBalances */\n    tag_4:\n      tag_11\n      tag_12\n      calldatasize\n      0x04\n      tag_13\n      jump\t// in\n    tag_12:\n      dup1\n      mload\n      0x20\n      dup2\n      dup4\n      add\n      dup2\n      add\n      dup1\n      mload\n      0x01\n      dup3\n      mstore\n      swap3\n      dup3\n      add\n      swap2\n      swap1\n      swap4\n      add\n      keccak256\n      swap2\n      mstore\n      sload\n      dup2\n      jump\n    tag_11:\n      mload(0x40)\n        /* \"#utility.yul\":1791:1816   */\n      swap1\n      dup2\n      mstore\n        /* \"#utility.yul\":1779:1781   */\n      0x20\n        /* \"#utility.yul\":1764:1782   */\n      add\n        /* \"UserAdmi.sol\":219:266  mapping(string => uint256) public usersBalances */\n    tag_15:\n      mload(0x40)\n      dup1\n      swap2\n      sub\n      swap1\n      return\n        /* \"UserAdmi.sol\":185:210  User[] public listOfUsers */\n    tag_5:\n      tag_17\n      tag_18\n      calldatasize\n      0x04\n      tag_19\n      jump\t// in\n    tag_18:\n      tag_20\n      jump\t// in\n    tag_17:\n      mload(0x40)\n      tag_15\n      swap3\n      swap2\n      swap1\n      tag_22\n      jump\t// in\n        /* \"UserAdmi.sol\":487:601  function retrive(string memory _name) public view returns( uint256){... */\n    tag_6:\n      tag_11\n      tag_24\n      calldatasize\n      0x04\n      tag_13\n      jump\t// in\n    tag_24:\n      tag_25\n      jump\t// in\n        /* \"UserAdmi.sol\":275:479  function storeNewUser(string memory _name, uint256 _age) public {... */\n    tag_10:\n        /* \"UserAdmi.sol\":374:391  User(_name, _age) */\n      0x40\n      dup1\n      mload\n      dup1\n      dup3\n      add\n      swap1\n      swap2\n      mstore\n      dup3\n      dup2\n      mstore\n      0x20\n      dup2\n      add\n      dup3\n      swap1\n      mstore\n        /* \"UserAdmi.sol\":350:371  User memory myNewUser */\n      0x00\n        /* \"UserAdmi.sol\":402:429  listOfUsers.push(myNewUser) */\n      dup1\n      sload\n      0x01\n      dup2\n      add\n      dup3\n      sstore\n      swap1\n      dup1\n      mstore\n      dup2\n      mload\n        /* \"UserAdmi.sol\":374:391  User(_name, _age) */\n      dup3\n      swap2\n        /* \"UserAdmi.sol\":402:429  listOfUsers.push(myNewUser) */\n      0x02\n      mul\n      0x290decd9548b62a8d60345a988386fc84ba6bc95484008f6362f93160ef3e563\n      add\n      swap1\n      dup2\n      swap1\n      tag_29\n      swap1\n      dup3\n      tag_30\n      jump\t// in\n    tag_29:\n      pop\n      0x20\n      swap2\n      swap1\n      swap2\n      add\n      mload\n      0x01\n      swap1\n      swap2\n      add\n      sstore\n        /* \"UserAdmi.sol\":463:471  _age*123 */\n      tag_31\n        /* \"UserAdmi.sol\":463:467  _age */\n      dup3\n        /* \"UserAdmi.sol\":468:471  123 */\n      0x7b\n        /* \"UserAdmi.sol\":463:471  _age*123 */\n      tag_32\n      jump\t// in\n    tag_31:\n        /* \"UserAdmi.sol\":440:453  usersBalances */\n      0x01\n        /* \"UserAdmi.sol\":454:459  _name */\n      dup5\n        /* \"UserAdmi.sol\":440:460  usersBalances[_name] */\n      mload(0x40)\n      tag_33\n      swap2\n      swap1\n      tag_34\n      jump\t// in\n    tag_33:\n      swap1\n      dup2\n      mstore\n      mload(0x40)\n      swap1\n      dup2\n      swap1\n      sub\n      0x20\n      add\n      swap1\n      keccak256\n        /* \"UserAdmi.sol\":440:471  usersBalances[_name] = _age*123 */\n      sstore\n      pop\n      pop\n      pop\n        /* \"UserAdmi.sol\":275:479  function storeNewUser(string memory _name, uint256 _age) public {... */\n      jump\t// out\n        /* \"UserAdmi.sol\":185:210  User[] public listOfUsers */\n    tag_20:\n      0x00\n      dup2\n      dup2\n      sload\n      dup2\n      lt\n      tag_35\n      jumpi\n      0x00\n      dup1\n      revert\n    tag_35:\n      swap1\n      0x00\n      mstore\n      keccak256(0x00, 0x20)\n      swap1\n      0x02\n      mul\n      add\n      0x00\n      swap2\n      pop\n      swap1\n      pop\n      dup1\n      0x00\n      add\n      dup1\n      sload\n      tag_37\n      swap1\n      tag_38\n      jump\t// in\n    tag_37:\n      dup1\n      0x1f\n      add\n      0x20\n      dup1\n      swap2\n      div\n      mul\n      0x20\n      add\n      mload(0x40)\n      swap1\n      dup2\n      add\n      0x40\n      mstore\n      dup1\n      swap3\n      swap2\n      swap1\n      dup2\n      dup2\n      mstore\n      0x20\n      add\n      dup3\n      dup1\n      sload\n      tag_39\n      swap1\n      tag_38\n      jump\t// in\n    tag_39:\n      dup1\n      iszero\n      tag_40\n      jumpi\n      dup1\n      0x1f\n      lt\n      tag_41\n      jumpi\n      0x0100\n      dup1\n      dup4\n      sload\n      div\n      mul\n      dup4\n      mstore\n      swap2\n      0x20\n      add\n      swap2\n      jump(tag_40)\n    tag_41:\n      dup3\n      add\n      swap2\n      swap1\n      0x00\n      mstore\n      keccak256(0x00, 0x20)\n      swap1\n    tag_42:\n      dup2\n      sload\n      dup2\n      mstore\n      swap1\n      0x01\n      add\n      swap1\n      0x20\n      add\n      dup1\n      dup4\n      gt\n      tag_42\n      jumpi\n      dup3\n      swap1\n      sub\n      0x1f\n      and\n      dup3\n      add\n      swap2\n    tag_40:\n      pop\n      pop\n      pop\n      pop\n      pop\n      swap1\n      dup1\n      0x01\n      add\n      sload\n      swap1\n      pop\n      dup3\n      jump\t// out\n        /* \"UserAdmi.sol\":487:601  function retrive(string memory _name) public view returns( uint256){... */\n    tag_25:\n        /* \"UserAdmi.sol\":546:553  uint256 */\n      0x00\n        /* \"UserAdmi.sol\":572:585  usersBalances */\n      0x01\n        /* \"UserAdmi.sol\":586:591  _name */\n      dup3\n        /* \"UserAdmi.sol\":572:592  usersBalances[_name] */\n      mload(0x40)\n      tag_44\n      swap2\n      swap1\n      tag_34\n      jump\t// in\n    tag_44:\n      swap1\n      dup2\n      mstore\n      0x20\n      add\n      mload(0x40)\n      dup1\n      swap2\n      sub\n      swap1\n      keccak256\n      sload\n        /* \"UserAdmi.sol\":565:593  return(usersBalances[_name]) */\n      swap1\n      pop\n        /* \"UserAdmi.sol\":487:601  function retrive(string memory _name) public view returns( uint256){... */\n      swap2\n      swap1\n      pop\n      jump\t// out\n        /* \"#utility.yul\":14:141   */\n    tag_45:\n        /* \"#utility.yul\":75:85   */\n      0x4e487b71\n        /* \"#utility.yul\":70:73   */\n      0xe0\n        /* \"#utility.yul\":66:86   */\n      shl\n        /* \"#utility.yul\":63:64   */\n      0x00\n        /* \"#utility.yul\":56:87   */\n      mstore\n        /* \"#utility.yul\":106:110   */\n      0x41\n        /* \"#utility.yul\":103:104   */\n      0x04\n        /* \"#utility.yul\":96:111   */\n      mstore\n        /* \"#utility.yul\":130:134   */\n      0x24\n        /* \"#utility.yul\":127:128   */\n      0x00\n        /* \"#utility.yul\":120:135   */\n      revert\n        /* \"#utility.yul\":146:872   */\n    tag_46:\n        /* \"#utility.yul\":189:194   */\n      0x00\n        /* \"#utility.yul\":242:245   */\n      dup3\n        /* \"#utility.yul\":235:239   */\n      0x1f\n        /* \"#utility.yul\":227:233   */\n      dup4\n        /* \"#utility.yul\":223:240   */\n      add\n        /* \"#utility.yul\":219:246   */\n      slt\n        /* \"#utility.yul\":209:264   */\n      tag_53\n      jumpi\n        /* \"#utility.yul\":260:261   */\n      0x00\n        /* \"#utility.yul\":257:258   */\n      dup1\n        /* \"#utility.yul\":250:262   */\n      revert\n        /* \"#utility.yul\":209:264   */\n    tag_53:\n        /* \"#utility.yul\":300:306   */\n      dup2\n        /* \"#utility.yul\":287:307   */\n      calldataload\n        /* \"#utility.yul\":330:348   */\n      0xffffffffffffffff\n        /* \"#utility.yul\":322:328   */\n      dup2\n        /* \"#utility.yul\":319:349   */\n      gt\n        /* \"#utility.yul\":316:372   */\n      iszero\n      tag_55\n      jumpi\n        /* \"#utility.yul\":352:370   */\n      tag_55\n      tag_45\n      jump\t// in\n    tag_55:\n        /* \"#utility.yul\":401:403   */\n      0x40\n        /* \"#utility.yul\":395:404   */\n      mload\n        /* \"#utility.yul\":493:495   */\n      0x1f\n        /* \"#utility.yul\":455:472   */\n      dup3\n      add\n      not(0x1f)\n        /* \"#utility.yul\":451:482   */\n      swap1\n      dup2\n      and\n        /* \"#utility.yul\":484:486   */\n      0x3f\n        /* \"#utility.yul\":447:487   */\n      add\n        /* \"#utility.yul\":443:497   */\n      and\n        /* \"#utility.yul\":431:498   */\n      dup2\n      add\n        /* \"#utility.yul\":528:546   */\n      0xffffffffffffffff\n        /* \"#utility.yul\":513:547   */\n      dup2\n      gt\n        /* \"#utility.yul\":549:571   */\n      dup3\n      dup3\n      lt\n        /* \"#utility.yul\":510:572   */\n      or\n        /* \"#utility.yul\":507:595   */\n      iszero\n      tag_57\n      jumpi\n        /* \"#utility.yul\":575:593   */\n      tag_57\n      tag_45\n      jump\t// in\n    tag_57:\n        /* \"#utility.yul\":611:613   */\n      0x40\n        /* \"#utility.yul\":604:626   */\n      mstore\n        /* \"#utility.yul\":635:657   */\n      dup2\n      dup2\n      mstore\n        /* \"#utility.yul\":676:695   */\n      dup4\n      dup3\n      add\n        /* \"#utility.yul\":697:701   */\n      0x20\n        /* \"#utility.yul\":672:702   */\n      add\n        /* \"#utility.yul\":669:708   */\n      dup6\n      lt\n        /* \"#utility.yul\":666:725   */\n      iszero\n      tag_58\n      jumpi\n        /* \"#utility.yul\":721:722   */\n      0x00\n        /* \"#utility.yul\":718:719   */\n      dup1\n        /* \"#utility.yul\":711:723   */\n      revert\n        /* \"#utility.yul\":666:725   */\n    tag_58:\n        /* \"#utility.yul\":785:791   */\n      dup2\n        /* \"#utility.yul\":778:782   */\n      0x20\n        /* \"#utility.yul\":770:776   */\n      dup6\n        /* \"#utility.yul\":766:783   */\n      add\n        /* \"#utility.yul\":759:763   */\n      0x20\n        /* \"#utility.yul\":751:757   */\n      dup4\n        /* \"#utility.yul\":747:764   */\n      add\n        /* \"#utility.yul\":734:792   */\n      calldatacopy\n        /* \"#utility.yul\":840:841   */\n      0x00\n        /* \"#utility.yul\":812:831   */\n      swap2\n      dup2\n      add\n        /* \"#utility.yul\":833:837   */\n      0x20\n        /* \"#utility.yul\":808:838   */\n      add\n        /* \"#utility.yul\":801:842   */\n      swap2\n      swap1\n      swap2\n      mstore\n        /* \"#utility.yul\":816:822   */\n      swap4\n        /* \"#utility.yul\":146:872   */\n      swap3\n      pop\n      pop\n      pop\n      jump\t// out\n        /* \"#utility.yul\":877:1313   */\n    tag_9:\n        /* \"#utility.yul\":955:961   */\n      0x00\n        /* \"#utility.yul\":963:969   */\n      dup1\n        /* \"#utility.yul\":1016:1018   */\n      0x40\n        /* \"#utility.yul\":1004:1013   */\n      dup4\n        /* \"#utility.yul\":995:1002   */\n      dup6\n        /* \"#utility.yul\":991:1014   */\n      sub\n        /* \"#utility.yul\":987:1019   */\n      slt\n        /* \"#utility.yul\":984:1036   */\n      iszero\n      tag_60\n      jumpi\n        /* \"#utility.yul\":1032:1033   */\n      0x00\n        /* \"#utility.yul\":1029:1030   */\n      dup1\n        /* \"#utility.yul\":1022:1034   */\n      revert\n        /* \"#utility.yul\":984:1036   */\n    tag_60:\n        /* \"#utility.yul\":1072:1081   */\n      dup3\n        /* \"#utility.yul\":1059:1082   */\n      calldataload\n        /* \"#utility.yul\":1105:1123   */\n      0xffffffffffffffff\n        /* \"#utility.yul\":1097:1103   */\n      dup2\n        /* \"#utility.yul\":1094:1124   */\n      gt\n        /* \"#utility.yul\":1091:1141   */\n      iszero\n      tag_61\n      jumpi\n        /* \"#utility.yul\":1137:1138   */\n      0x00\n        /* \"#utility.yul\":1134:1135   */\n      dup1\n        /* \"#utility.yul\":1127:1139   */\n      revert\n        /* \"#utility.yul\":1091:1141   */\n    tag_61:\n        /* \"#utility.yul\":1160:1210   */\n      tag_62\n        /* \"#utility.yul\":1202:1209   */\n      dup6\n        /* \"#utility.yul\":1193:1199   */\n      dup3\n        /* \"#utility.yul\":1182:1191   */\n      dup7\n        /* \"#utility.yul\":1178:1200   */\n      add\n        /* \"#utility.yul\":1160:1210   */\n      tag_46\n      jump\t// in\n    tag_62:\n        /* \"#utility.yul\":1150:1210   */\n      swap6\n        /* \"#utility.yul\":1279:1281   */\n      0x20\n        /* \"#utility.yul\":1264:1282   */\n      swap5\n      swap1\n      swap5\n      add\n        /* \"#utility.yul\":1251:1283   */\n      calldataload\n      swap5\n      pop\n      pop\n      pop\n      pop\n        /* \"#utility.yul\":877:1313   */\n      jump\t// out\n        /* \"#utility.yul\":1318:1640   */\n    tag_13:\n        /* \"#utility.yul\":1387:1393   */\n      0x00\n        /* \"#utility.yul\":1440:1442   */\n      0x20\n        /* \"#utility.yul\":1428:1437   */\n      dup3\n        /* \"#utility.yul\":1419:1426   */\n      dup5\n        /* \"#utility.yul\":1415:1438   */\n      sub\n        /* \"#utility.yul\":1411:1443   */\n      slt\n        /* \"#utility.yul\":1408:1460   */\n      iszero\n      tag_64\n      jumpi\n        /* \"#utility.yul\":1456:1457   */\n      0x00\n        /* \"#utility.yul\":1453:1454   */\n      dup1\n        /* \"#utility.yul\":1446:1458   */\n      revert\n        /* \"#utility.yul\":1408:1460   */\n    tag_64:\n        /* \"#utility.yul\":1496:1505   */\n      dup2\n        /* \"#utility.yul\":1483:1506   */\n      calldataload\n        /* \"#utility.yul\":1529:1547   */\n      0xffffffffffffffff\n        /* \"#utility.yul\":1521:1527   */\n      dup2\n        /* \"#utility.yul\":1518:1548   */\n      gt\n        /* \"#utility.yul\":1515:1565   */\n      iszero\n      tag_65\n      jumpi\n        /* \"#utility.yul\":1561:1562   */\n      0x00\n        /* \"#utility.yul\":1558:1559   */\n      dup1\n        /* \"#utility.yul\":1551:1563   */\n      revert\n        /* \"#utility.yul\":1515:1565   */\n    tag_65:\n        /* \"#utility.yul\":1584:1634   */\n      tag_66\n        /* \"#utility.yul\":1626:1633   */\n      dup5\n        /* \"#utility.yul\":1617:1623   */\n      dup3\n        /* \"#utility.yul\":1606:1615   */\n      dup6\n        /* \"#utility.yul\":1602:1624   */\n      add\n        /* \"#utility.yul\":1584:1634   */\n      tag_46\n      jump\t// in\n    tag_66:\n        /* \"#utility.yul\":1574:1634   */\n      swap5\n        /* \"#utility.yul\":1318:1640   */\n      swap4\n      pop\n      pop\n      pop\n      pop\n      jump\t// out\n        /* \"#utility.yul\":1827:2053   */\n    tag_19:\n        /* \"#utility.yul\":1886:1892   */\n      0x00\n        /* \"#utility.yul\":1939:1941   */\n      0x20\n        /* \"#utility.yul\":1927:1936   */\n      dup3\n        /* \"#utility.yul\":1918:1925   */\n      dup5\n        /* \"#utility.yul\":1914:1937   */\n      sub\n        /* \"#utility.yul\":1910:1942   */\n      slt\n        /* \"#utility.yul\":1907:1959   */\n      iszero\n      tag_69\n      jumpi\n        /* \"#utility.yul\":1955:1956   */\n      0x00\n        /* \"#utility.yul\":1952:1953   */\n      dup1\n        /* \"#utility.yul\":1945:1957   */\n      revert\n        /* \"#utility.yul\":1907:1959   */\n    tag_69:\n      pop\n        /* \"#utility.yul\":2000:2023   */\n      calldataload\n      swap2\n        /* \"#utility.yul\":1827:2053   */\n      swap1\n      pop\n      jump\t// out\n        /* \"#utility.yul\":2058:2551   */\n    tag_22:\n        /* \"#utility.yul\":2235:2237   */\n      0x40\n        /* \"#utility.yul\":2224:2233   */\n      dup2\n        /* \"#utility.yul\":2217:2238   */\n      mstore\n        /* \"#utility.yul\":2198:2202   */\n      0x00\n        /* \"#utility.yul\":2267:2273   */\n      dup4\n        /* \"#utility.yul\":2261:2274   */\n      mload\n        /* \"#utility.yul\":2310:2316   */\n      dup1\n        /* \"#utility.yul\":2305:2307   */\n      0x40\n        /* \"#utility.yul\":2294:2303   */\n      dup5\n        /* \"#utility.yul\":2290:2308   */\n      add\n        /* \"#utility.yul\":2283:2317   */\n      mstore\n        /* \"#utility.yul\":2371:2377   */\n      dup1\n        /* \"#utility.yul\":2364:2368   */\n      0x20\n        /* \"#utility.yul\":2356:2362   */\n      dup7\n        /* \"#utility.yul\":2352:2369   */\n      add\n        /* \"#utility.yul\":2347:2349   */\n      0x60\n        /* \"#utility.yul\":2336:2345   */\n      dup6\n        /* \"#utility.yul\":2332:2350   */\n      add\n        /* \"#utility.yul\":2326:2378   */\n      mcopy\n        /* \"#utility.yul\":2427:2428   */\n      0x00\n        /* \"#utility.yul\":2422:2424   */\n      0x60\n        /* \"#utility.yul\":2413:2419   */\n      dup3\n        /* \"#utility.yul\":2402:2411   */\n      dup6\n        /* \"#utility.yul\":2398:2420   */\n      add\n        /* \"#utility.yul\":2394:2425   */\n      add\n        /* \"#utility.yul\":2387:2429   */\n      mstore\n        /* \"#utility.yul\":2497:2499   */\n      0x60\n        /* \"#utility.yul\":2490:2492   */\n      0x1f\n        /* \"#utility.yul\":2486:2493   */\n      not\n        /* \"#utility.yul\":2481:2483   */\n      0x1f\n        /* \"#utility.yul\":2473:2479   */\n      dup4\n        /* \"#utility.yul\":2469:2484   */\n      add\n        /* \"#utility.yul\":2465:2494   */\n      and\n        /* \"#utility.yul\":2454:2463   */\n      dup5\n        /* \"#utility.yul\":2450:2495   */\n      add\n        /* \"#utility.yul\":2446:2500   */\n      add\n        /* \"#utility.yul\":2438:2500   */\n      swap2\n      pop\n      pop\n        /* \"#utility.yul\":2538:2544   */\n      dup3\n        /* \"#utility.yul\":2531:2535   */\n      0x20\n        /* \"#utility.yul\":2520:2529   */\n      dup4\n        /* \"#utility.yul\":2516:2536   */\n      add\n        /* \"#utility.yul\":2509:2545   */\n      mstore\n        /* \"#utility.yul\":2058:2551   */\n      swap4\n      swap3\n      pop\n      pop\n      pop\n      jump\t// out\n        /* \"#utility.yul\":2556:2936   */\n    tag_38:\n        /* \"#utility.yul\":2635:2636   */\n      0x01\n        /* \"#utility.yul\":2631:2643   */\n      dup2\n      dup2\n      shr\n      swap1\n        /* \"#utility.yul\":2678:2690   */\n      dup3\n      and\n      dup1\n        /* \"#utility.yul\":2699:2760   */\n      tag_72\n      jumpi\n        /* \"#utility.yul\":2753:2757   */\n      0x7f\n        /* \"#utility.yul\":2745:2751   */\n      dup3\n        /* \"#utility.yul\":2741:2758   */\n      and\n        /* \"#utility.yul\":2731:2758   */\n      swap2\n      pop\n        /* \"#utility.yul\":2699:2760   */\n    tag_72:\n        /* \"#utility.yul\":2806:2808   */\n      0x20\n        /* \"#utility.yul\":2798:2804   */\n      dup3\n        /* \"#utility.yul\":2795:2809   */\n      lt\n        /* \"#utility.yul\":2775:2793   */\n      dup2\n        /* \"#utility.yul\":2772:2810   */\n      sub\n        /* \"#utility.yul\":2769:2930   */\n      tag_73\n      jumpi\n        /* \"#utility.yul\":2852:2862   */\n      0x4e487b71\n        /* \"#utility.yul\":2847:2850   */\n      0xe0\n        /* \"#utility.yul\":2843:2863   */\n      shl\n        /* \"#utility.yul\":2840:2841   */\n      0x00\n        /* \"#utility.yul\":2833:2864   */\n      mstore\n        /* \"#utility.yul\":2887:2891   */\n      0x22\n        /* \"#utility.yul\":2884:2885   */\n      0x04\n        /* \"#utility.yul\":2877:2892   */\n      mstore\n        /* \"#utility.yul\":2915:2919   */\n      0x24\n        /* \"#utility.yul\":2912:2913   */\n      0x00\n        /* \"#utility.yul\":2905:2920   */\n      revert\n        /* \"#utility.yul\":2769:2930   */\n    tag_73:\n      pop\n        /* \"#utility.yul\":2556:2936   */\n      swap2\n      swap1\n      pop\n      jump\t// out\n        /* \"#utility.yul\":3067:3585   */\n    tag_48:\n        /* \"#utility.yul\":3169:3171   */\n      0x1f\n        /* \"#utility.yul\":3164:3167   */\n      dup3\n        /* \"#utility.yul\":3161:3172   */\n      gt\n        /* \"#utility.yul\":3158:3579   */\n      iszero\n      tag_76\n      jumpi\n        /* \"#utility.yul\":3205:3210   */\n      dup1\n        /* \"#utility.yul\":3202:3203   */\n      0x00\n        /* \"#utility.yul\":3195:3211   */\n      mstore\n        /* \"#utility.yul\":3249:3253   */\n      0x20\n        /* \"#utility.yul\":3246:3247   */\n      0x00\n        /* \"#utility.yul\":3236:3254   */\n      keccak256\n        /* \"#utility.yul\":3319:3321   */\n      0x1f\n        /* \"#utility.yul\":3307:3317   */\n      dup5\n        /* \"#utility.yul\":3303:3322   */\n      add\n        /* \"#utility.yul\":3300:3301   */\n      0x05\n        /* \"#utility.yul\":3296:3323   */\n      shr\n        /* \"#utility.yul\":3290:3294   */\n      dup2\n        /* \"#utility.yul\":3286:3324   */\n      add\n        /* \"#utility.yul\":3355:3359   */\n      0x20\n        /* \"#utility.yul\":3343:3353   */\n      dup6\n        /* \"#utility.yul\":3340:3360   */\n      lt\n        /* \"#utility.yul\":3337:3384   */\n      iszero\n      tag_77\n      jumpi\n      pop\n        /* \"#utility.yul\":3378:3382   */\n      dup1\n        /* \"#utility.yul\":3337:3384   */\n    tag_77:\n        /* \"#utility.yul\":3433:3435   */\n      0x1f\n        /* \"#utility.yul\":3428:3431   */\n      dup5\n        /* \"#utility.yul\":3424:3436   */\n      add\n        /* \"#utility.yul\":3421:3422   */\n      0x05\n        /* \"#utility.yul\":3417:3437   */\n      shr\n        /* \"#utility.yul\":3411:3415   */\n      dup3\n        /* \"#utility.yul\":3407:3438   */\n      add\n        /* \"#utility.yul\":3397:3438   */\n      swap2\n      pop\n        /* \"#utility.yul\":3488:3569   */\n    tag_78:\n        /* \"#utility.yul\":3506:3508   */\n      dup2\n        /* \"#utility.yul\":3499:3504   */\n      dup2\n        /* \"#utility.yul\":3496:3509   */\n      lt\n        /* \"#utility.yul\":3488:3569   */\n      iszero\n      tag_80\n      jumpi\n        /* \"#utility.yul\":3565:3566   */\n      0x00\n        /* \"#utility.yul\":3551:3567   */\n      dup2\n      sstore\n        /* \"#utility.yul\":3532:3533   */\n      0x01\n        /* \"#utility.yul\":3521:3534   */\n      add\n        /* \"#utility.yul\":3488:3569   */\n      jump(tag_78)\n    tag_80:\n        /* \"#utility.yul\":3492:3495   */\n      pop\n      pop\n        /* \"#utility.yul\":3158:3579   */\n    tag_76:\n        /* \"#utility.yul\":3067:3585   */\n      pop\n      pop\n      pop\n      jump\t// out\n        /* \"#utility.yul\":3761:5060   */\n    tag_30:\n        /* \"#utility.yul\":3887:3890   */\n      dup2\n        /* \"#utility.yul\":3881:3891   */\n      mload\n        /* \"#utility.yul\":3914:3932   */\n      0xffffffffffffffff\n        /* \"#utility.yul\":3906:3912   */\n      dup2\n        /* \"#utility.yul\":3903:3933   */\n      gt\n        /* \"#utility.yul\":3900:3956   */\n      iszero\n      tag_84\n      jumpi\n        /* \"#utility.yul\":3936:3954   */\n      tag_84\n      tag_45\n      jump\t// in\n    tag_84:\n        /* \"#utility.yul\":3965:4062   */\n      tag_85\n        /* \"#utility.yul\":4055:4061   */\n      dup2\n        /* \"#utility.yul\":4015:4053   */\n      tag_86\n        /* \"#utility.yul\":4047:4051   */\n      dup5\n        /* \"#utility.yul\":4041:4052   */\n      sload\n        /* \"#utility.yul\":4015:4053   */\n      tag_38\n      jump\t// in\n    tag_86:\n        /* \"#utility.yul\":4009:4013   */\n      dup5\n        /* \"#utility.yul\":3965:4062   */\n      tag_48\n      jump\t// in\n    tag_85:\n        /* \"#utility.yul\":4111:4115   */\n      0x20\n        /* \"#utility.yul\":4142:4144   */\n      0x1f\n        /* \"#utility.yul\":4131:4145   */\n      dup3\n      gt\n        /* \"#utility.yul\":4159:4160   */\n      0x01\n        /* \"#utility.yul\":4154:4803   */\n      dup2\n      eq\n      tag_88\n      jumpi\n        /* \"#utility.yul\":4847:4848   */\n      0x00\n        /* \"#utility.yul\":4864:4870   */\n      dup4\n        /* \"#utility.yul\":4861:4950   */\n      iszero\n      tag_89\n      jumpi\n      pop\n        /* \"#utility.yul\":4916:4935   */\n      dup5\n      dup3\n      add\n        /* \"#utility.yul\":4910:4936   */\n      mload\n        /* \"#utility.yul\":4861:4950   */\n    tag_89:\n      not(0x00)\n        /* \"#utility.yul\":3718:3719   */\n      0x03\n        /* \"#utility.yul\":3714:3725   */\n      dup6\n      swap1\n      shl\n        /* \"#utility.yul\":3710:3734   */\n      shr\n        /* \"#utility.yul\":3706:3735   */\n      not\n        /* \"#utility.yul\":3696:3736   */\n      and\n        /* \"#utility.yul\":3742:3743   */\n      0x01\n        /* \"#utility.yul\":3738:3749   */\n      dup5\n      swap1\n      shl\n        /* \"#utility.yul\":3693:3750   */\n      or\n        /* \"#utility.yul\":4963:5044   */\n      dup5\n      sstore\n        /* \"#utility.yul\":4124:5054   */\n      jump(tag_80)\n        /* \"#utility.yul\":4154:4803   */\n    tag_88:\n        /* \"#utility.yul\":3014:3015   */\n      0x00\n        /* \"#utility.yul\":3007:3021   */\n      dup5\n      dup2\n      mstore\n        /* \"#utility.yul\":3051:3055   */\n      0x20\n        /* \"#utility.yul\":3038:3056   */\n      dup2\n      keccak256\n      not(0x1f)\n        /* \"#utility.yul\":4190:4210   */\n      dup6\n      and\n      swap2\n        /* \"#utility.yul\":4308:4530   */\n    tag_92:\n        /* \"#utility.yul\":4322:4329   */\n      dup3\n        /* \"#utility.yul\":4319:4320   */\n      dup2\n        /* \"#utility.yul\":4316:4330   */\n      lt\n        /* \"#utility.yul\":4308:4530   */\n      iszero\n      tag_94\n      jumpi\n        /* \"#utility.yul\":4404:4423   */\n      dup8\n      dup6\n      add\n        /* \"#utility.yul\":4398:4424   */\n      mload\n        /* \"#utility.yul\":4383:4425   */\n      dup3\n      sstore\n        /* \"#utility.yul\":4511:4515   */\n      0x20\n        /* \"#utility.yul\":4496:4516   */\n      swap5\n      dup6\n      add\n      swap5\n        /* \"#utility.yul\":4464:4465   */\n      0x01\n        /* \"#utility.yul\":4452:4466   */\n      swap1\n      swap3\n      add\n      swap2\n        /* \"#utility.yul\":4338:4350   */\n      add\n        /* \"#utility.yul\":4308:4530   */\n      jump(tag_92)\n    tag_94:\n        /* \"#utility.yul\":4312:4315   */\n      pop\n        /* \"#utility.yul\":4558:4564   */\n      dup5\n        /* \"#utility.yul\":4549:4556   */\n      dup3\n        /* \"#utility.yul\":4546:4565   */\n      lt\n        /* \"#utility.yul\":4543:4744   */\n      iszero\n      tag_95\n      jumpi\n        /* \"#utility.yul\":4619:4638   */\n      dup7\n      dup5\n      add\n        /* \"#utility.yul\":4613:4639   */\n      mload\n      not(0x00)\n        /* \"#utility.yul\":4702:4703   */\n      0x03\n        /* \"#utility.yul\":4698:4712   */\n      dup8\n      swap1\n      shl\n        /* \"#utility.yul\":4714:4717   */\n      0xf8\n        /* \"#utility.yul\":4694:4718   */\n      and\n        /* \"#utility.yul\":4690:4727   */\n      shr\n        /* \"#utility.yul\":4686:4728   */\n      not\n        /* \"#utility.yul\":4671:4729   */\n      and\n        /* \"#utility.yul\":4656:4730   */\n      dup2\n      sstore\n        /* \"#utility.yul\":4543:4744   */\n    tag_95:\n      pop\n      pop\n      pop\n      pop\n        /* \"#utility.yul\":4790:4791   */\n      0x01\n        /* \"#utility.yul\":4774:4788   */\n      swap1\n      dup2\n      shl\n        /* \"#utility.yul\":4770:4792   */\n      add\n        /* \"#utility.yul\":4757:4793   */\n      swap1\n      sstore\n      pop\n        /* \"#utility.yul\":3761:5060   */\n      jump\t// out\n        /* \"#utility.yul\":5065:5330   */\n    tag_32:\n        /* \"#utility.yul\":5138:5147   */\n      dup1\n      dup3\n      mul\n        /* \"#utility.yul\":5169:5178   */\n      dup2\n      iszero\n        /* \"#utility.yul\":5186:5201   */\n      dup3\n      dup3\n      div\n        /* \"#utility.yul\":5180:5202   */\n      dup5\n      eq\n        /* \"#utility.yul\":5166:5203   */\n      or\n        /* \"#utility.yul\":5156:5324   */\n      tag_97\n      jumpi\n        /* \"#utility.yul\":5246:5256   */\n      0x4e487b71\n        /* \"#utility.yul\":5241:5244   */\n      0xe0\n        /* \"#utility.yul\":5237:5257   */\n      shl\n        /* \"#utility.yul\":5234:5235   */\n      0x00\n        /* \"#utility.yul\":5227:5258   */\n      mstore\n        /* \"#utility.yul\":5281:5285   */\n      0x11\n        /* \"#utility.yul\":5278:5279   */\n      0x04\n        /* \"#utility.yul\":5271:5286   */\n      mstore\n        /* \"#utility.yul\":5309:5313   */\n      0x24\n        /* \"#utility.yul\":5306:5307   */\n      0x00\n        /* \"#utility.yul\":5299:5314   */\n      revert\n        /* \"#utility.yul\":5156:5324   */\n    tag_97:\n        /* \"#utility.yul\":5065:5330   */\n      swap3\n      swap2\n      pop\n      pop\n      jump\t// out\n        /* \"#utility.yul\":5335:5638   */\n    tag_34:\n        /* \"#utility.yul\":5466:5469   */\n      0x00\n        /* \"#utility.yul\":5504:5510   */\n      dup3\n        /* \"#utility.yul\":5498:5511   */\n      mload\n        /* \"#utility.yul\":5550:5556   */\n      dup1\n        /* \"#utility.yul\":5543:5547   */\n      0x20\n        /* \"#utility.yul\":5535:5541   */\n      dup6\n        /* \"#utility.yul\":5531:5548   */\n      add\n        /* \"#utility.yul\":5526:5529   */\n      dup5\n        /* \"#utility.yul\":5520:5557   */\n      mcopy\n        /* \"#utility.yul\":5612:5613   */\n      0x00\n        /* \"#utility.yul\":5576:5592   */\n      swap3\n      add\n        /* \"#utility.yul\":5601:5614   */\n      swap2\n      dup3\n      mstore\n      pop\n        /* \"#utility.yul\":5576:5592   */\n      swap2\n        /* \"#utility.yul\":5335:5638   */\n      swap1\n      pop\n      jump\t// out\n\n    auxdata: 0xa264697066735822122038d8523da533f01e472037fa19d2ddb4ee9c4ffc61203cc45b3ae076c51fe14364736f6c634300081a0033\n}\n",
				"bytecode": {
					"linkReferences": {},
					"object": "6080604052348015600e575f80fd5b506105668061001c5f395ff3fe608060405234801561000f575f80fd5b506004361061004a575f3560e01c806380ca3fac1461004e5780638a88850014610063578063b018e0dd146100a1578063e46bb76f146100c2575b5f80fd5b61006161005c3660046102e3565b6100d5565b005b61008e610071366004610325565b805160208183018101805160018252928201919093012091525481565b6040519081526020015b60405180910390f35b6100b46100af36600461035f565b610169565b604051610098929190610376565b61008e6100d0366004610325565b61021d565b60408051808201909152828152602081018290525f8054600181018255908052815182916002027f290decd9548b62a8d60345a988386fc84ba6bc95484008f6362f93160ef3e5630190819061012b9082610436565b506020919091015160019091015561014482607b6104f1565b600184604051610154919061051a565b90815260405190819003602001902055505050565b5f8181548110610177575f80fd5b905f5260205f2090600202015f91509050805f018054610196906103b2565b80601f01602080910402602001604051908101604052809291908181526020018280546101c2906103b2565b801561020d5780601f106101e45761010080835404028352916020019161020d565b820191905f5260205f20905b8154815290600101906020018083116101f057829003601f168201915b5050505050908060010154905082565b5f60018260405161022e919061051a565b9081526020016040518091039020549050919050565b634e487b7160e01b5f52604160045260245ffd5b5f82601f830112610267575f80fd5b813567ffffffffffffffff81111561028157610281610244565b604051601f8201601f19908116603f0116810167ffffffffffffffff811182821017156102b0576102b0610244565b6040528181528382016020018510156102c7575f80fd5b816020850160208301375f918101602001919091529392505050565b5f80604083850312156102f4575f80fd5b823567ffffffffffffffff81111561030a575f80fd5b61031685828601610258565b95602094909401359450505050565b5f60208284031215610335575f80fd5b813567ffffffffffffffff81111561034b575f80fd5b61035784828501610258565b949350505050565b5f6020828403121561036f575f80fd5b5035919050565b604081525f83518060408401528060208601606085015e5f606082850101526060601f19601f8301168401019150508260208301529392505050565b600181811c908216806103c657607f821691505b6020821081036103e457634e487b7160e01b5f52602260045260245ffd5b50919050565b601f82111561043157805f5260205f20601f840160051c8101602085101561040f5750805b601f840160051c820191505b8181101561042e575f815560010161041b565b50505b505050565b815167ffffffffffffffff81111561045057610450610244565b6104648161045e84546103b2565b846103ea565b6020601f821160018114610496575f831561047f5750848201515b5f19600385901b1c1916600184901b17845561042e565b5f84815260208120601f198516915b828110156104c557878501518255602094850194600190920191016104a5565b50848210156104e257868401515f19600387901b60f8161c191681555b50505050600190811b01905550565b808202811582820484141761051457634e487b7160e01b5f52601160045260245ffd5b92915050565b5f82518060208501845e5f92019182525091905056fea264697066735822122038d8523da533f01e472037fa19d2ddb4ee9c4ffc61203cc45b3ae076c51fe14364736f6c634300081a0033",
					"opcodes": "PUSH1 0x80 PUSH1 0x40 MSTORE CALLVALUE DUP1 ISZERO PUSH1 0xE JUMPI PUSH0 DUP1 REVERT JUMPDEST POP PUSH2 0x566 DUP1 PUSH2 0x1C PUSH0 CODECOPY PUSH0 RETURN INVALID PUSH1 0x80 PUSH1 0x40 MSTORE CALLVALUE DUP1 ISZERO PUSH2 0xF JUMPI PUSH0 DUP1 REVERT JUMPDEST POP PUSH1 0x4 CALLDATASIZE LT PUSH2 0x4A JUMPI PUSH0 CALLDATALOAD PUSH1 0xE0 SHR DUP1 PUSH4 0x80CA3FAC EQ PUSH2 0x4E JUMPI DUP1 PUSH4 0x8A888500 EQ PUSH2 0x63 JUMPI DUP1 PUSH4 0xB018E0DD EQ PUSH2 0xA1 JUMPI DUP1 PUSH4 0xE46BB76F EQ PUSH2 0xC2 JUMPI JUMPDEST PUSH0 DUP1 REVERT JUMPDEST PUSH2 0x61 PUSH2 0x5C CALLDATASIZE PUSH1 0x4 PUSH2 0x2E3 JUMP JUMPDEST PUSH2 0xD5 JUMP JUMPDEST STOP JUMPDEST PUSH2 0x8E PUSH2 0x71 CALLDATASIZE PUSH1 0x4 PUSH2 0x325 JUMP JUMPDEST DUP1 MLOAD PUSH1 0x20 DUP2 DUP4 ADD DUP2 ADD DUP1 MLOAD PUSH1 0x1 DUP3 MSTORE SWAP3 DUP3 ADD SWAP2 SWAP1 SWAP4 ADD KECCAK256 SWAP2 MSTORE SLOAD DUP2 JUMP JUMPDEST PUSH1 0x40 MLOAD SWAP1 DUP2 MSTORE PUSH1 0x20 ADD JUMPDEST PUSH1 0x40 MLOAD DUP1 SWAP2 SUB SWAP1 RETURN JUMPDEST PUSH2 0xB4 PUSH2 0xAF CALLDATASIZE PUSH1 0x4 PUSH2 0x35F JUMP JUMPDEST PUSH2 0x169 JUMP JUMPDEST PUSH1 0x40 MLOAD PUSH2 0x98 SWAP3 SWAP2 SWAP1 PUSH2 0x376 JUMP JUMPDEST PUSH2 0x8E PUSH2 0xD0 CALLDATASIZE PUSH1 0x4 PUSH2 0x325 JUMP JUMPDEST PUSH2 0x21D JUMP JUMPDEST PUSH1 0x40 DUP1 MLOAD DUP1 DUP3 ADD SWAP1 SWAP2 MSTORE DUP3 DUP2 MSTORE PUSH1 0x20 DUP2 ADD DUP3 SWAP1 MSTORE PUSH0 DUP1 SLOAD PUSH1 0x1 DUP2 ADD DUP3 SSTORE SWAP1 DUP1 MSTORE DUP2 MLOAD DUP3 SWAP2 PUSH1 0x2 MUL PUSH32 0x290DECD9548B62A8D60345A988386FC84BA6BC95484008F6362F93160EF3E563 ADD SWAP1 DUP2 SWAP1 PUSH2 0x12B SWAP1 DUP3 PUSH2 0x436 JUMP JUMPDEST POP PUSH1 0x20 SWAP2 SWAP1 SWAP2 ADD MLOAD PUSH1 0x1 SWAP1 SWAP2 ADD SSTORE PUSH2 0x144 DUP3 PUSH1 0x7B PUSH2 0x4F1 JUMP JUMPDEST PUSH1 0x1 DUP5 PUSH1 0x40 MLOAD PUSH2 0x154 SWAP2 SWAP1 PUSH2 0x51A JUMP JUMPDEST SWAP1 DUP2 MSTORE PUSH1 0x40 MLOAD SWAP1 DUP2 SWAP1 SUB PUSH1 0x20 ADD SWAP1 KECCAK256 SSTORE POP POP POP JUMP JUMPDEST PUSH0 DUP2 DUP2 SLOAD DUP2 LT PUSH2 0x177 JUMPI PUSH0 DUP1 REVERT JUMPDEST SWAP1 PUSH0 MSTORE PUSH1 0x20 PUSH0 KECCAK256 SWAP1 PUSH1 0x2 MUL ADD PUSH0 SWAP2 POP SWAP1 POP DUP1 PUSH0 ADD DUP1 SLOAD PUSH2 0x196 SWAP1 PUSH2 0x3B2 JUMP JUMPDEST DUP1 PUSH1 0x1F ADD PUSH1 0x20 DUP1 SWAP2 DIV MUL PUSH1 0x20 ADD PUSH1 0x40 MLOAD SWAP1 DUP2 ADD PUSH1 0x40 MSTORE DUP1 SWAP3 SWAP2 SWAP1 DUP2 DUP2 MSTORE PUSH1 0x20 ADD DUP3 DUP1 SLOAD PUSH2 0x1C2 SWAP1 PUSH2 0x3B2 JUMP JUMPDEST DUP1 ISZERO PUSH2 0x20D JUMPI DUP1 PUSH1 0x1F LT PUSH2 0x1E4 JUMPI PUSH2 0x100 DUP1 DUP4 SLOAD DIV MUL DUP4 MSTORE SWAP2 PUSH1 0x20 ADD SWAP2 PUSH2 0x20D JUMP JUMPDEST DUP3 ADD SWAP2 SWAP1 PUSH0 MSTORE PUSH1 0x20 PUSH0 KECCAK256 SWAP1 JUMPDEST DUP2 SLOAD DUP2 MSTORE SWAP1 PUSH1 0x1 ADD SWAP1 PUSH1 0x20 ADD DUP1 DUP4 GT PUSH2 0x1F0 JUMPI DUP3 SWAP1 SUB PUSH1 0x1F AND DUP3 ADD SWAP2 JUMPDEST POP POP POP POP POP SWAP1 DUP1 PUSH1 0x1 ADD SLOAD SWAP1 POP DUP3 JUMP JUMPDEST PUSH0 PUSH1 0x1 DUP3 PUSH1 0x40 MLOAD PUSH2 0x22E SWAP2 SWAP1 PUSH2 0x51A JUMP JUMPDEST SWAP1 DUP2 MSTORE PUSH1 0x20 ADD PUSH1 0x40 MLOAD DUP1 SWAP2 SUB SWAP1 KECCAK256 SLOAD SWAP1 POP SWAP2 SWAP1 POP JUMP JUMPDEST PUSH4 0x4E487B71 PUSH1 0xE0 SHL PUSH0 MSTORE PUSH1 0x41 PUSH1 0x4 MSTORE PUSH1 0x24 PUSH0 REVERT JUMPDEST PUSH0 DUP3 PUSH1 0x1F DUP4 ADD SLT PUSH2 0x267 JUMPI PUSH0 DUP1 REVERT JUMPDEST DUP2 CALLDATALOAD PUSH8 0xFFFFFFFFFFFFFFFF DUP2 GT ISZERO PUSH2 0x281 JUMPI PUSH2 0x281 PUSH2 0x244 JUMP JUMPDEST PUSH1 0x40 MLOAD PUSH1 0x1F DUP3 ADD PUSH1 0x1F NOT SWAP1 DUP2 AND PUSH1 0x3F ADD AND DUP2 ADD PUSH8 0xFFFFFFFFFFFFFFFF DUP2 GT DUP3 DUP3 LT OR ISZERO PUSH2 0x2B0 JUMPI PUSH2 0x2B0 PUSH2 0x244 JUMP JUMPDEST PUSH1 0x40 MSTORE DUP2 DUP2 MSTORE DUP4 DUP3 ADD PUSH1 0x20 ADD DUP6 LT ISZERO PUSH2 0x2C7 JUMPI PUSH0 DUP1 REVERT JUMPDEST DUP2 PUSH1 0x20 DUP6 ADD PUSH1 0x20 DUP4 ADD CALLDATACOPY PUSH0 SWAP2 DUP2 ADD PUSH1 0x20 ADD SWAP2 SWAP1 SWAP2 MSTORE SWAP4 SWAP3 POP POP POP JUMP JUMPDEST PUSH0 DUP1 PUSH1 0x40 DUP4 DUP6 SUB SLT ISZERO PUSH2 0x2F4 JUMPI PUSH0 DUP1 REVERT JUMPDEST DUP3 CALLDATALOAD PUSH8 0xFFFFFFFFFFFFFFFF DUP2 GT ISZERO PUSH2 0x30A JUMPI PUSH0 DUP1 REVERT JUMPDEST PUSH2 0x316 DUP6 DUP3 DUP7 ADD PUSH2 0x258 JUMP JUMPDEST SWAP6 PUSH1 0x20 SWAP5 SWAP1 SWAP5 ADD CALLDATALOAD SWAP5 POP POP POP POP JUMP JUMPDEST PUSH0 PUSH1 0x20 DUP3 DUP5 SUB SLT ISZERO PUSH2 0x335 JUMPI PUSH0 DUP1 REVERT JUMPDEST DUP2 CALLDATALOAD PUSH8 0xFFFFFFFFFFFFFFFF DUP2 GT ISZERO PUSH2 0x34B JUMPI PUSH0 DUP1 REVERT JUMPDEST PUSH2 0x357 DUP5 DUP3 DUP6 ADD PUSH2 0x258 JUMP JUMPDEST SWAP5 SWAP4 POP POP POP POP JUMP JUMPDEST PUSH0 PUSH1 0x20 DUP3 DUP5 SUB SLT ISZERO PUSH2 0x36F JUMPI PUSH0 DUP1 REVERT JUMPDEST POP CALLDATALOAD SWAP2 SWAP1 POP JUMP JUMPDEST PUSH1 0x40 DUP2 MSTORE PUSH0 DUP4 MLOAD DUP1 PUSH1 0x40 DUP5 ADD MSTORE DUP1 PUSH1 0x20 DUP7 ADD PUSH1 0x60 DUP6 ADD MCOPY PUSH0 PUSH1 0x60 DUP3 DUP6 ADD ADD MSTORE PUSH1 0x60 PUSH1 0x1F NOT PUSH1 0x1F DUP4 ADD AND DUP5 ADD ADD SWAP2 POP POP DUP3 PUSH1 0x20 DUP4 ADD MSTORE SWAP4 SWAP3 POP POP POP JUMP JUMPDEST PUSH1 0x1 DUP2 DUP2 SHR SWAP1 DUP3 AND DUP1 PUSH2 0x3C6 JUMPI PUSH1 0x7F DUP3 AND SWAP2 POP JUMPDEST PUSH1 0x20 DUP3 LT DUP2 SUB PUSH2 0x3E4 JUMPI PUSH4 0x4E487B71 PUSH1 0xE0 SHL PUSH0 MSTORE PUSH1 0x22 PUSH1 0x4 MSTORE PUSH1 0x24 PUSH0 REVERT JUMPDEST POP SWAP2 SWAP1 POP JUMP JUMPDEST PUSH1 0x1F DUP3 GT ISZERO PUSH2 0x431 JUMPI DUP1 PUSH0 MSTORE PUSH1 0x20 PUSH0 KECCAK256 PUSH1 0x1F DUP5 ADD PUSH1 0x5 SHR DUP2 ADD PUSH1 0x20 DUP6 LT ISZERO PUSH2 0x40F JUMPI POP DUP1 JUMPDEST PUSH1 0x1F DUP5 ADD PUSH1 0x5 SHR DUP3 ADD SWAP2 POP JUMPDEST DUP2 DUP2 LT ISZERO PUSH2 0x42E JUMPI PUSH0 DUP2 SSTORE PUSH1 0x1 ADD PUSH2 0x41B JUMP JUMPDEST POP POP JUMPDEST POP POP POP JUMP JUMPDEST DUP2 MLOAD PUSH8 0xFFFFFFFFFFFFFFFF DUP2 GT ISZERO PUSH2 0x450 JUMPI PUSH2 0x450 PUSH2 0x244 JUMP JUMPDEST PUSH2 0x464 DUP2 PUSH2 0x45E DUP5 SLOAD PUSH2 0x3B2 JUMP JUMPDEST DUP5 PUSH2 0x3EA JUMP JUMPDEST PUSH1 0x20 PUSH1 0x1F DUP3 GT PUSH1 0x1 DUP2 EQ PUSH2 0x496 JUMPI PUSH0 DUP4 ISZERO PUSH2 0x47F JUMPI POP DUP5 DUP3 ADD MLOAD JUMPDEST PUSH0 NOT PUSH1 0x3 DUP6 SWAP1 SHL SHR NOT AND PUSH1 0x1 DUP5 SWAP1 SHL OR DUP5 SSTORE PUSH2 0x42E JUMP JUMPDEST PUSH0 DUP5 DUP2 MSTORE PUSH1 0x20 DUP2 KECCAK256 PUSH1 0x1F NOT DUP6 AND SWAP2 JUMPDEST DUP3 DUP2 LT ISZERO PUSH2 0x4C5 JUMPI DUP8 DUP6 ADD MLOAD DUP3 SSTORE PUSH1 0x20 SWAP5 DUP6 ADD SWAP5 PUSH1 0x1 SWAP1 SWAP3 ADD SWAP2 ADD PUSH2 0x4A5 JUMP JUMPDEST POP DUP5 DUP3 LT ISZERO PUSH2 0x4E2 JUMPI DUP7 DUP5 ADD MLOAD PUSH0 NOT PUSH1 0x3 DUP8 SWAP1 SHL PUSH1 0xF8 AND SHR NOT AND DUP2 SSTORE JUMPDEST POP POP POP POP PUSH1 0x1 SWAP1 DUP2 SHL ADD SWAP1 SSTORE POP JUMP JUMPDEST DUP1 DUP3 MUL DUP2 ISZERO DUP3 DUP3 DIV DUP5 EQ OR PUSH2 0x514 JUMPI PUSH4 0x4E487B71 PUSH1 0xE0 SHL PUSH0 MSTORE PUSH1 0x11 PUSH1 0x4 MSTORE PUSH1 0x24 PUSH0 REVERT JUMPDEST SWAP3 SWAP2 POP POP JUMP JUMPDEST PUSH0 DUP3 MLOAD DUP1 PUSH1 0x20 DUP6 ADD DUP5 MCOPY PUSH0 SWAP3 ADD SWAP2 DUP3 MSTORE POP SWAP2 SWAP1 POP JUMP INVALID LOG2 PUSH5 0x6970667358 0x22 SLT KECCAK256 CODESIZE 0xD8 MSTORE RETURNDATASIZE 0xA5 CALLER CREATE 0x1E SELFBALANCE KECCAK256 CALLDATACOPY STATICCALL NOT 0xD2 0xDD 0xB4 0xEE SWAP13 0x4F 0xFC PUSH2 0x203C 0xC4 JUMPDEST GASPRICE 0xE0 PUSH23 0xC51FE14364736F6C634300081A00330000000000000000 "
				},
				"gasEstimates": {
					"creation": {
						"codeDepositCost": "276400",
						"executionCost": "316",
						"totalCost": "276716"
					},
					"external": {
						"listOfUsers(uint256)": "infinite",
						"retrive(string)": "infinite",
						"storeNewUser(string,uint256)": "infinite",
						"usersBalances(string)": "infinite"
					}
				},
				"methodIdentifiers": {
					"listOfUsers(uint256)": "b018e0dd",
					"retrive(string)": "e46bb76f",
					"storeNewUser(string,uint256)": "80ca3fac",
					"usersBalances(string)": "8a888500"
				}
			},
			"storageLayout": {
				"storage": [
					{
						"astId": 10,
						"contract": "UserAdmi.sol:UserAdmin",
						"label": "listOfUsers",
						"offset": 0,
						"slot": "0",
						"type": "t_array(t_struct(User)6_storage)dyn_storage"
					},
					{
						"astId": 14,
						"contract": "UserAdmi.sol:UserAdmin",
						"label": "usersBalances",
						"offset": 0,
						"slot": "1",
						"type": "t_mapping(t_string_memory_ptr,t_uint256)"
					}
				],
				"types": {
					"t_array(t_struct(User)6_storage)dyn_storage": {
						"base": "t_struct(User)6_storage",
						"encoding": "dynamic_array",
						"label": "struct UserAdmin.User[]",
						"numberOfBytes": "32"
					},
					"t_mapping(t_string_memory_ptr,t_uint256)": {
						"encoding": "mapping",
						"key": "t_string_memory_ptr",
						"label": "mapping(string => uint256)",
						"numberOfBytes": "32",
						"value": "t_uint256"
					},
					"t_string_memory_ptr": {
						"encoding": "bytes",
						"label": "string",
						"numberOfBytes": "32"
					},
					"t_string_storage": {
						"encoding": "bytes",
						"label": "string",
						"numberOfBytes": "32"
					},
					"t_struct(User)6_storage": {
						"encoding": "inplace",
						"label": "struct UserAdmin.User",
						"members": [
							{
								"astId": 3,
								"contract": "UserAdmi.sol:UserAdmin",
								"label": "name",
								"offset": 0,
								"slot": "0",
								"type": "t_string_storage"
							},
							{
								"astId": 5,
								"contract": "UserAdmi.sol:UserAdmin",
								"label": "age",
								"offset": 0,
								"slot": "1",
								"type": "t_uint256"
							}
						],
						"numberOfBytes": "64"
					},
					"t_uint256": {
						"encoding": "inplace",
						"label": "uint256",
						"numberOfBytes": "32"
					}
				}
			},
			"userdoc": {
				"kind": "user",
				"methods": {},
				"version": 1
			}
		}
	}
}