{
	"SimpleStorage.sol": {
		"SimpleStorage": {
			"abi": [
				{
					"inputs": [
						{
							"internalType": "uint256",
							"name": "_age",
							"type": "uint256"
						},
						{
							"internalType": "string",
							"name": "_name",
							"type": "string"
						}
					],
					"name": "add",
					"outputs": [],
					"stateMutability": "nonpayable",
					"type": "function"
				},
				{
					"inputs": [],
					"name": "myInt",
					"outputs": [
						{
							"internalType": "uint256",
							"name": "",
							"type": "uint256"
						}
					],
					"stateMutability": "view",
					"type": "function"
				},
				{
					"inputs": [
						{
							"internalType": "uint256",
							"name": "",
							"type": "uint256"
						}
					],
					"name": "people",
					"outputs": [
						{
							"internalType": "uint256",
							"name": "age",
							"type": "uint256"
						},
						{
							"internalType": "string",
							"name": "name",
							"type": "string"
						}
					],
					"stateMutability": "view",
					"type": "function"
				},
				{
					"inputs": [
						{
							"internalType": "string",
							"name": "",
							"type": "string"
						}
					],
					"name": "peopleMap",
					"outputs": [
						{
							"internalType": "uint256",
							"name": "",
							"type": "uint256"
						}
					],
					"stateMutability": "view",
					"type": "function"
				},
				{
					"inputs": [],
					"name": "retrive",
					"outputs": [
						{
							"internalType": "uint256",
							"name": "",
							"type": "uint256"
						}
					],
					"stateMutability": "view",
					"type": "function"
				},
				{
					"inputs": [
						{
							"internalType": "uint256",
							"name": "_myInt",
							"type": "uint256"
						}
					],
					"name": "store",
					"outputs": [],
					"stateMutability": "nonpayable",
					"type": "function"
				}
			],
			"devdoc": {
				"kind": "dev",
				"methods": {},
				"version": 1
			},
			"evm": {
				"assembly": "    /* \"SimpleStorage.sol\":108:859  contract SimpleStorage {... */\n  mstore(0x40, 0x80)\n  callvalue\n  dup1\n  iszero\n  tag_1\n  jumpi\n  0x00\n  dup1\n  revert\ntag_1:\n  pop\n  dataSize(sub_0)\n  dup1\n  dataOffset(sub_0)\n  0x00\n  codecopy\n  0x00\n  return\nstop\n\nsub_0: assembly {\n        /* \"SimpleStorage.sol\":108:859  contract SimpleStorage {... */\n      mstore(0x40, 0x80)\n      callvalue\n      dup1\n      iszero\n      tag_1\n      jumpi\n      0x00\n      dup1\n      revert\n    tag_1:\n      pop\n      jumpi(tag_2, lt(calldatasize, 0x04))\n      shr(0xe0, calldataload(0x00))\n      dup1\n      0x2cb777a6\n      eq\n      tag_3\n      jumpi\n      dup1\n      0x6057361d\n      eq\n      tag_4\n      jumpi\n      dup1\n      0x7230bce8\n      eq\n      tag_5\n      jumpi\n      dup1\n      0x92fc46ae\n      eq\n      tag_6\n      jumpi\n      dup1\n      0x9e7a13ad\n      eq\n      tag_7\n      jumpi\n      dup1\n      0xa6b7fc5b\n      eq\n      tag_8\n      jumpi\n    tag_2:\n      0x00\n      dup1\n      revert\n        /* \"SimpleStorage.sol\":331:351  uint256 public myInt */\n    tag_3:\n      tag_9\n      sload(0x00)\n      dup2\n      jump\n    tag_9:\n      mload(0x40)\n        /* \"#utility.yul\":160:185   */\n      swap1\n      dup2\n      mstore\n        /* \"#utility.yul\":148:150   */\n      0x20\n        /* \"#utility.yul\":133:151   */\n      add\n        /* \"SimpleStorage.sol\":331:351  uint256 public myInt */\n    tag_11:\n      mload(0x40)\n      dup1\n      swap2\n      sub\n      swap1\n      return\n        /* \"SimpleStorage.sol\":364:435  function store(uint256 _myInt) public {... */\n    tag_4:\n      tag_13\n      tag_14\n      calldatasize\n      0x04\n      tag_15\n      jump\t// in\n    tag_14:\n        /* \"SimpleStorage.sol\":413:418  myInt */\n      0x00\n        /* \"SimpleStorage.sol\":413:427  myInt = _myInt */\n      sstore\n        /* \"SimpleStorage.sol\":364:435  function store(uint256 _myInt) public {... */\n      jump\n    tag_13:\n      stop\n        /* \"SimpleStorage.sol\":705:856  function add(uint256 _age, string memory _name) public{... */\n    tag_5:\n      tag_13\n      tag_18\n      calldatasize\n      0x04\n      tag_19\n      jump\t// in\n    tag_18:\n      tag_20\n      jump\t// in\n        /* \"SimpleStorage.sol\":547:592  mapping (string  => uint256) public peopleMap */\n    tag_6:\n      tag_9\n      tag_22\n      calldatasize\n      0x04\n      tag_23\n      jump\t// in\n    tag_22:\n      dup1\n      mload\n      0x20\n      dup2\n      dup4\n      add\n      dup2\n      add\n      dup1\n      mload\n      0x02\n      dup3\n      mstore\n      swap3\n      dup3\n      add\n      swap2\n      swap1\n      swap4\n      add\n      keccak256\n      swap2\n      mstore\n      sload\n      dup2\n      jump\n        /* \"SimpleStorage.sol\":516:538  Person[] public people */\n    tag_7:\n      tag_26\n      tag_27\n      calldatasize\n      0x04\n      tag_15\n      jump\t// in\n    tag_27:\n      tag_28\n      jump\t// in\n    tag_26:\n      mload(0x40)\n      tag_11\n      swap3\n      swap2\n      swap1\n      tag_30\n      jump\t// in\n        /* \"SimpleStorage.sol\":617:697  function retrive() public view returns (uint256) {... */\n    tag_8:\n        /* \"SimpleStorage.sol\":657:664  uint256 */\n      0x00\n        /* \"SimpleStorage.sol\":684:689  myInt */\n      sload\n        /* \"SimpleStorage.sol\":617:697  function retrive() public view returns (uint256) {... */\n      jump(tag_9)\n        /* \"SimpleStorage.sol\":705:856  function add(uint256 _age, string memory _name) public{... */\n    tag_20:\n        /* \"SimpleStorage.sol\":782:813  Person({age:_age,name : _name}) */\n      0x40\n      dup1\n      mload\n      dup1\n      dup3\n      add\n      swap1\n      swap2\n      mstore\n      dup3\n      dup2\n      mstore\n      0x20\n      dup2\n      add\n      dup3\n      dup2\n      mstore\n        /* \"SimpleStorage.sol\":770:776  people */\n      0x01\n        /* \"SimpleStorage.sol\":770:814  people.push(Person({age:_age,name : _name})) */\n      dup1\n      sload\n      dup1\n      dup3\n      add\n      dup3\n      sstore\n      0x00\n      swap2\n      swap1\n      swap2\n      mstore\n      dup3\n      mload\n      0x02\n      swap1\n      swap2\n      mul\n      0xb10e2d527612073b26eecdfd717e6a320cf44b4afac2b0732d9fcbe2b7fa0cf6\n      dup2\n      add\n      swap2\n      dup3\n      sstore\n      swap2\n      mload\n      swap1\n      swap2\n      0xb10e2d527612073b26eecdfd717e6a320cf44b4afac2b0732d9fcbe2b7fa0cf7\n      add\n      swap1\n      tag_37\n      swap1\n      dup3\n      tag_38\n      jump\t// in\n    tag_37:\n      pop\n      pop\n      pop\n        /* \"SimpleStorage.sol\":844:848  _age */\n      dup2\n        /* \"SimpleStorage.sol\":825:834  peopleMap */\n      0x02\n        /* \"SimpleStorage.sol\":835:840  _name */\n      dup3\n        /* \"SimpleStorage.sol\":825:841  peopleMap[_name] */\n      mload(0x40)\n      tag_39\n      swap2\n      swap1\n      tag_40\n      jump\t// in\n    tag_39:\n      swap1\n      dup2\n      mstore\n      mload(0x40)\n      swap1\n      dup2\n      swap1\n      sub\n      0x20\n      add\n      swap1\n      keccak256\n        /* \"SimpleStorage.sol\":825:848  peopleMap[_name] = _age */\n      sstore\n      pop\n      pop\n        /* \"SimpleStorage.sol\":705:856  function add(uint256 _age, string memory _name) public{... */\n      jump\t// out\n        /* \"SimpleStorage.sol\":516:538  Person[] public people */\n    tag_28:\n      0x01\n      dup2\n      dup2\n      sload\n      dup2\n      lt\n      tag_41\n      jumpi\n      0x00\n      dup1\n      revert\n    tag_41:\n      0x00\n      swap2\n      dup3\n      mstore\n      0x20\n      swap1\n      swap2\n      keccak256\n      0x02\n      swap1\n      swap2\n      mul\n      add\n      dup1\n      sload\n      0x01\n      dup3\n      add\n      dup1\n      sload\n      swap2\n      swap4\n      pop\n      swap1\n      tag_43\n      swap1\n      tag_44\n      jump\t// in\n    tag_43:\n      dup1\n      0x1f\n      add\n      0x20\n      dup1\n      swap2\n      div\n      mul\n      0x20\n      add\n      mload(0x40)\n      swap1\n      dup2\n      add\n      0x40\n      mstore\n      dup1\n      swap3\n      swap2\n      swap1\n      dup2\n      dup2\n      mstore\n      0x20\n      add\n      dup3\n      dup1\n      sload\n      tag_45\n      swap1\n      tag_44\n      jump\t// in\n    tag_45:\n      dup1\n      iszero\n      tag_46\n      jumpi\n      dup1\n      0x1f\n      lt\n      tag_47\n      jumpi\n      0x0100\n      dup1\n      dup4\n      sload\n      div\n      mul\n      dup4\n      mstore\n      swap2\n      0x20\n      add\n      swap2\n      jump(tag_46)\n    tag_47:\n      dup3\n      add\n      swap2\n      swap1\n      0x00\n      mstore\n      keccak256(0x00, 0x20)\n      swap1\n    tag_48:\n      dup2\n      sload\n      dup2\n      mstore\n      swap1\n      0x01\n      add\n      swap1\n      0x20\n      add\n      dup1\n      dup4\n      gt\n      tag_48\n      jumpi\n      dup3\n      swap1\n      sub\n      0x1f\n      and\n      dup3\n      add\n      swap2\n    tag_46:\n      pop\n      pop\n      pop\n      pop\n      pop\n      swap1\n      pop\n      dup3\n      jump\t// out\n        /* \"#utility.yul\":196:376   */\n    tag_15:\n        /* \"#utility.yul\":255:261   */\n      0x00\n        /* \"#utility.yul\":308:310   */\n      0x20\n        /* \"#utility.yul\":296:305   */\n      dup3\n        /* \"#utility.yul\":287:294   */\n      dup5\n        /* \"#utility.yul\":283:306   */\n      sub\n        /* \"#utility.yul\":279:311   */\n      slt\n        /* \"#utility.yul\":276:328   */\n      iszero\n      tag_59\n      jumpi\n        /* \"#utility.yul\":324:325   */\n      0x00\n        /* \"#utility.yul\":321:322   */\n      dup1\n        /* \"#utility.yul\":314:326   */\n      revert\n        /* \"#utility.yul\":276:328   */\n    tag_59:\n      pop\n        /* \"#utility.yul\":347:370   */\n      calldataload\n      swap2\n        /* \"#utility.yul\":196:376   */\n      swap1\n      pop\n      jump\t// out\n        /* \"#utility.yul\":381:508   */\n    tag_50:\n        /* \"#utility.yul\":442:452   */\n      0x4e487b71\n        /* \"#utility.yul\":437:440   */\n      0xe0\n        /* \"#utility.yul\":433:453   */\n      shl\n        /* \"#utility.yul\":430:431   */\n      0x00\n        /* \"#utility.yul\":423:454   */\n      mstore\n        /* \"#utility.yul\":473:477   */\n      0x41\n        /* \"#utility.yul\":470:471   */\n      0x04\n        /* \"#utility.yul\":463:478   */\n      mstore\n        /* \"#utility.yul\":497:501   */\n      0x24\n        /* \"#utility.yul\":494:495   */\n      0x00\n        /* \"#utility.yul\":487:502   */\n      revert\n        /* \"#utility.yul\":513:1232   */\n    tag_51:\n        /* \"#utility.yul\":556:561   */\n      0x00\n        /* \"#utility.yul\":609:612   */\n      dup3\n        /* \"#utility.yul\":602:606   */\n      0x1f\n        /* \"#utility.yul\":594:600   */\n      dup4\n        /* \"#utility.yul\":590:607   */\n      add\n        /* \"#utility.yul\":586:613   */\n      slt\n        /* \"#utility.yul\":576:631   */\n      tag_62\n      jumpi\n        /* \"#utility.yul\":627:628   */\n      0x00\n        /* \"#utility.yul\":624:625   */\n      dup1\n        /* \"#utility.yul\":617:629   */\n      revert\n        /* \"#utility.yul\":576:631   */\n    tag_62:\n        /* \"#utility.yul\":663:669   */\n      dup2\n        /* \"#utility.yul\":650:670   */\n      calldataload\n        /* \"#utility.yul\":689:707   */\n      0xffffffffffffffff\n        /* \"#utility.yul\":726:728   */\n      dup1\n        /* \"#utility.yul\":722:724   */\n      dup3\n        /* \"#utility.yul\":719:729   */\n      gt\n        /* \"#utility.yul\":716:752   */\n      iszero\n      tag_64\n      jumpi\n        /* \"#utility.yul\":732:750   */\n      tag_64\n      tag_50\n      jump\t// in\n    tag_64:\n        /* \"#utility.yul\":807:809   */\n      0x40\n        /* \"#utility.yul\":801:810   */\n      mload\n        /* \"#utility.yul\":775:777   */\n      0x1f\n        /* \"#utility.yul\":861:874   */\n      dup4\n      add\n      not(0x1f)\n        /* \"#utility.yul\":857:879   */\n      swap1\n      dup2\n      and\n        /* \"#utility.yul\":881:883   */\n      0x3f\n        /* \"#utility.yul\":853:884   */\n      add\n        /* \"#utility.yul\":849:889   */\n      and\n        /* \"#utility.yul\":837:890   */\n      dup2\n      add\n      swap1\n        /* \"#utility.yul\":905:923   */\n      dup3\n      dup3\n      gt\n        /* \"#utility.yul\":925:947   */\n      dup2\n      dup4\n      lt\n        /* \"#utility.yul\":902:948   */\n      or\n        /* \"#utility.yul\":899:971   */\n      iszero\n      tag_66\n      jumpi\n        /* \"#utility.yul\":951:969   */\n      tag_66\n      tag_50\n      jump\t// in\n    tag_66:\n        /* \"#utility.yul\":991:1001   */\n      dup2\n        /* \"#utility.yul\":987:989   */\n      0x40\n        /* \"#utility.yul\":980:1002   */\n      mstore\n        /* \"#utility.yul\":1026:1028   */\n      dup4\n        /* \"#utility.yul\":1018:1024   */\n      dup2\n        /* \"#utility.yul\":1011:1029   */\n      mstore\n        /* \"#utility.yul\":1072:1075   */\n      dup7\n        /* \"#utility.yul\":1065:1069   */\n      0x20\n        /* \"#utility.yul\":1060:1062   */\n      dup6\n        /* \"#utility.yul\":1052:1058   */\n      dup9\n        /* \"#utility.yul\":1048:1063   */\n      add\n        /* \"#utility.yul\":1044:1070   */\n      add\n        /* \"#utility.yul\":1041:1076   */\n      gt\n        /* \"#utility.yul\":1038:1093   */\n      iszero\n      tag_67\n      jumpi\n        /* \"#utility.yul\":1089:1090   */\n      0x00\n        /* \"#utility.yul\":1086:1087   */\n      dup1\n        /* \"#utility.yul\":1079:1091   */\n      revert\n        /* \"#utility.yul\":1038:1093   */\n    tag_67:\n        /* \"#utility.yul\":1153:1155   */\n      dup4\n        /* \"#utility.yul\":1146:1150   */\n      0x20\n        /* \"#utility.yul\":1138:1144   */\n      dup8\n        /* \"#utility.yul\":1134:1151   */\n      add\n        /* \"#utility.yul\":1127:1131   */\n      0x20\n        /* \"#utility.yul\":1119:1125   */\n      dup4\n        /* \"#utility.yul\":1115:1132   */\n      add\n        /* \"#utility.yul\":1102:1156   */\n      calldatacopy\n        /* \"#utility.yul\":1200:1201   */\n      0x00\n        /* \"#utility.yul\":1193:1197   */\n      0x20\n        /* \"#utility.yul\":1188:1190   */\n      dup6\n        /* \"#utility.yul\":1180:1186   */\n      dup4\n        /* \"#utility.yul\":1176:1191   */\n      add\n        /* \"#utility.yul\":1172:1198   */\n      add\n        /* \"#utility.yul\":1165:1202   */\n      mstore\n        /* \"#utility.yul\":1220:1226   */\n      dup1\n        /* \"#utility.yul\":1211:1226   */\n      swap5\n      pop\n      pop\n      pop\n      pop\n      pop\n        /* \"#utility.yul\":513:1232   */\n      swap3\n      swap2\n      pop\n      pop\n      jump\t// out\n        /* \"#utility.yul\":1237:1627   */\n    tag_19:\n        /* \"#utility.yul\":1315:1321   */\n      0x00\n        /* \"#utility.yul\":1323:1329   */\n      dup1\n        /* \"#utility.yul\":1376:1378   */\n      0x40\n        /* \"#utility.yul\":1364:1373   */\n      dup4\n        /* \"#utility.yul\":1355:1362   */\n      dup6\n        /* \"#utility.yul\":1351:1374   */\n      sub\n        /* \"#utility.yul\":1347:1379   */\n      slt\n        /* \"#utility.yul\":1344:1396   */\n      iszero\n      tag_69\n      jumpi\n        /* \"#utility.yul\":1392:1393   */\n      0x00\n        /* \"#utility.yul\":1389:1390   */\n      dup1\n        /* \"#utility.yul\":1382:1394   */\n      revert\n        /* \"#utility.yul\":1344:1396   */\n    tag_69:\n        /* \"#utility.yul\":1428:1437   */\n      dup3\n        /* \"#utility.yul\":1415:1438   */\n      calldataload\n        /* \"#utility.yul\":1405:1438   */\n      swap2\n      pop\n        /* \"#utility.yul\":1489:1491   */\n      0x20\n        /* \"#utility.yul\":1478:1487   */\n      dup4\n        /* \"#utility.yul\":1474:1492   */\n      add\n        /* \"#utility.yul\":1461:1493   */\n      calldataload\n        /* \"#utility.yul\":1516:1534   */\n      0xffffffffffffffff\n        /* \"#utility.yul\":1508:1514   */\n      dup2\n        /* \"#utility.yul\":1505:1535   */\n      gt\n        /* \"#utility.yul\":1502:1552   */\n      iszero\n      tag_70\n      jumpi\n        /* \"#utility.yul\":1548:1549   */\n      0x00\n        /* \"#utility.yul\":1545:1546   */\n      dup1\n        /* \"#utility.yul\":1538:1550   */\n      revert\n        /* \"#utility.yul\":1502:1552   */\n    tag_70:\n        /* \"#utility.yul\":1571:1621   */\n      tag_71\n        /* \"#utility.yul\":1613:1620   */\n      dup6\n        /* \"#utility.yul\":1604:1610   */\n      dup3\n        /* \"#utility.yul\":1593:1602   */\n      dup7\n        /* \"#utility.yul\":1589:1611   */\n      add\n        /* \"#utility.yul\":1571:1621   */\n      tag_51\n      jump\t// in\n    tag_71:\n        /* \"#utility.yul\":1561:1621   */\n      swap2\n      pop\n      pop\n        /* \"#utility.yul\":1237:1627   */\n      swap3\n      pop\n      swap3\n      swap1\n      pop\n      jump\t// out\n        /* \"#utility.yul\":1632:1954   */\n    tag_23:\n        /* \"#utility.yul\":1701:1707   */\n      0x00\n        /* \"#utility.yul\":1754:1756   */\n      0x20\n        /* \"#utility.yul\":1742:1751   */\n      dup3\n        /* \"#utility.yul\":1733:1740   */\n      dup5\n        /* \"#utility.yul\":1729:1752   */\n      sub\n        /* \"#utility.yul\":1725:1757   */\n      slt\n        /* \"#utility.yul\":1722:1774   */\n      iszero\n      tag_73\n      jumpi\n        /* \"#utility.yul\":1770:1771   */\n      0x00\n        /* \"#utility.yul\":1767:1768   */\n      dup1\n        /* \"#utility.yul\":1760:1772   */\n      revert\n        /* \"#utility.yul\":1722:1774   */\n    tag_73:\n        /* \"#utility.yul\":1810:1819   */\n      dup2\n        /* \"#utility.yul\":1797:1820   */\n      calldataload\n        /* \"#utility.yul\":1843:1861   */\n      0xffffffffffffffff\n        /* \"#utility.yul\":1835:1841   */\n      dup2\n        /* \"#utility.yul\":1832:1862   */\n      gt\n        /* \"#utility.yul\":1829:1879   */\n      iszero\n      tag_74\n      jumpi\n        /* \"#utility.yul\":1875:1876   */\n      0x00\n        /* \"#utility.yul\":1872:1873   */\n      dup1\n        /* \"#utility.yul\":1865:1877   */\n      revert\n        /* \"#utility.yul\":1829:1879   */\n    tag_74:\n        /* \"#utility.yul\":1898:1948   */\n      tag_75\n        /* \"#utility.yul\":1940:1947   */\n      dup5\n        /* \"#utility.yul\":1931:1937   */\n      dup3\n        /* \"#utility.yul\":1920:1929   */\n      dup6\n        /* \"#utility.yul\":1916:1938   */\n      add\n        /* \"#utility.yul\":1898:1948   */\n      tag_51\n      jump\t// in\n    tag_75:\n        /* \"#utility.yul\":1888:1948   */\n      swap5\n        /* \"#utility.yul\":1632:1954   */\n      swap4\n      pop\n      pop\n      pop\n      pop\n      jump\t// out\n        /* \"#utility.yul\":1959:2209   */\n    tag_52:\n        /* \"#utility.yul\":2044:2045   */\n      0x00\n        /* \"#utility.yul\":2054:2167   */\n    tag_77:\n        /* \"#utility.yul\":2068:2074   */\n      dup4\n        /* \"#utility.yul\":2065:2066   */\n      dup2\n        /* \"#utility.yul\":2062:2075   */\n      lt\n        /* \"#utility.yul\":2054:2167   */\n      iszero\n      tag_79\n      jumpi\n        /* \"#utility.yul\":2144:2155   */\n      dup2\n      dup2\n      add\n        /* \"#utility.yul\":2138:2156   */\n      mload\n        /* \"#utility.yul\":2125:2136   */\n      dup4\n      dup3\n      add\n        /* \"#utility.yul\":2118:2157   */\n      mstore\n        /* \"#utility.yul\":2090:2092   */\n      0x20\n        /* \"#utility.yul\":2083:2093   */\n      add\n        /* \"#utility.yul\":2054:2167   */\n      jump(tag_77)\n    tag_79:\n      pop\n      pop\n        /* \"#utility.yul\":2201:2202   */\n      0x00\n        /* \"#utility.yul\":2183:2199   */\n      swap2\n      add\n        /* \"#utility.yul\":2176:2203   */\n      mstore\n        /* \"#utility.yul\":1959:2209   */\n      jump\t// out\n        /* \"#utility.yul\":2214:2681   */\n    tag_30:\n        /* \"#utility.yul\":2391:2397   */\n      dup3\n        /* \"#utility.yul\":2380:2389   */\n      dup2\n        /* \"#utility.yul\":2373:2398   */\n      mstore\n        /* \"#utility.yul\":2434:2436   */\n      0x40\n        /* \"#utility.yul\":2429:2431   */\n      0x20\n        /* \"#utility.yul\":2418:2427   */\n      dup3\n        /* \"#utility.yul\":2414:2432   */\n      add\n        /* \"#utility.yul\":2407:2437   */\n      mstore\n        /* \"#utility.yul\":2354:2358   */\n      0x00\n        /* \"#utility.yul\":2466:2472   */\n      dup3\n        /* \"#utility.yul\":2460:2473   */\n      mload\n        /* \"#utility.yul\":2509:2515   */\n      dup1\n        /* \"#utility.yul\":2504:2506   */\n      0x40\n        /* \"#utility.yul\":2493:2502   */\n      dup5\n        /* \"#utility.yul\":2489:2507   */\n      add\n        /* \"#utility.yul\":2482:2516   */\n      mstore\n        /* \"#utility.yul\":2525:2604   */\n      tag_81\n        /* \"#utility.yul\":2597:2603   */\n      dup2\n        /* \"#utility.yul\":2592:2594   */\n      0x60\n        /* \"#utility.yul\":2581:2590   */\n      dup6\n        /* \"#utility.yul\":2577:2595   */\n      add\n        /* \"#utility.yul\":2572:2574   */\n      0x20\n        /* \"#utility.yul\":2564:2570   */\n      dup8\n        /* \"#utility.yul\":2560:2575   */\n      add\n        /* \"#utility.yul\":2525:2604   */\n      tag_52\n      jump\t// in\n    tag_81:\n        /* \"#utility.yul\":2665:2667   */\n      0x1f\n        /* \"#utility.yul\":2644:2659   */\n      add\n      not(0x1f)\n        /* \"#utility.yul\":2640:2669   */\n      and\n        /* \"#utility.yul\":2625:2670   */\n      swap2\n      swap1\n      swap2\n      add\n        /* \"#utility.yul\":2672:2674   */\n      0x60\n        /* \"#utility.yul\":2621:2675   */\n      add\n      swap4\n        /* \"#utility.yul\":2214:2681   */\n      swap3\n      pop\n      pop\n      pop\n      jump\t// out\n        /* \"#utility.yul\":2686:3066   */\n    tag_44:\n        /* \"#utility.yul\":2765:2766   */\n      0x01\n        /* \"#utility.yul\":2761:2773   */\n      dup2\n      dup2\n      shr\n      swap1\n        /* \"#utility.yul\":2808:2820   */\n      dup3\n      and\n      dup1\n        /* \"#utility.yul\":2829:2890   */\n      tag_83\n      jumpi\n        /* \"#utility.yul\":2883:2887   */\n      0x7f\n        /* \"#utility.yul\":2875:2881   */\n      dup3\n        /* \"#utility.yul\":2871:2888   */\n      and\n        /* \"#utility.yul\":2861:2888   */\n      swap2\n      pop\n        /* \"#utility.yul\":2829:2890   */\n    tag_83:\n        /* \"#utility.yul\":2936:2938   */\n      0x20\n        /* \"#utility.yul\":2928:2934   */\n      dup3\n        /* \"#utility.yul\":2925:2939   */\n      lt\n        /* \"#utility.yul\":2905:2923   */\n      dup2\n        /* \"#utility.yul\":2902:2940   */\n      sub\n        /* \"#utility.yul\":2899:3060   */\n      tag_84\n      jumpi\n        /* \"#utility.yul\":2982:2992   */\n      0x4e487b71\n        /* \"#utility.yul\":2977:2980   */\n      0xe0\n        /* \"#utility.yul\":2973:2993   */\n      shl\n        /* \"#utility.yul\":2970:2971   */\n      0x00\n        /* \"#utility.yul\":2963:2994   */\n      mstore\n        /* \"#utility.yul\":3017:3021   */\n      0x22\n        /* \"#utility.yul\":3014:3015   */\n      0x04\n        /* \"#utility.yul\":3007:3022   */\n      mstore\n        /* \"#utility.yul\":3045:3049   */\n      0x24\n        /* \"#utility.yul\":3042:3043   */\n      0x00\n        /* \"#utility.yul\":3035:3050   */\n      revert\n        /* \"#utility.yul\":2899:3060   */\n    tag_84:\n      pop\n        /* \"#utility.yul\":2686:3066   */\n      swap2\n      swap1\n      pop\n      jump\t// out\n        /* \"#utility.yul\":3197:3715   */\n    tag_54:\n        /* \"#utility.yul\":3299:3301   */\n      0x1f\n        /* \"#utility.yul\":3294:3297   */\n      dup3\n        /* \"#utility.yul\":3291:3302   */\n      gt\n        /* \"#utility.yul\":3288:3709   */\n      iszero\n      tag_87\n      jumpi\n        /* \"#utility.yul\":3335:3340   */\n      dup1\n        /* \"#utility.yul\":3332:3333   */\n      0x00\n        /* \"#utility.yul\":3325:3341   */\n      mstore\n        /* \"#utility.yul\":3379:3383   */\n      0x20\n        /* \"#utility.yul\":3376:3377   */\n      0x00\n        /* \"#utility.yul\":3366:3384   */\n      keccak256\n        /* \"#utility.yul\":3449:3451   */\n      0x1f\n        /* \"#utility.yul\":3437:3447   */\n      dup5\n        /* \"#utility.yul\":3433:3452   */\n      add\n        /* \"#utility.yul\":3430:3431   */\n      0x05\n        /* \"#utility.yul\":3426:3453   */\n      shr\n        /* \"#utility.yul\":3420:3424   */\n      dup2\n        /* \"#utility.yul\":3416:3454   */\n      add\n        /* \"#utility.yul\":3485:3489   */\n      0x20\n        /* \"#utility.yul\":3473:3483   */\n      dup6\n        /* \"#utility.yul\":3470:3490   */\n      lt\n        /* \"#utility.yul\":3467:3514   */\n      iszero\n      tag_88\n      jumpi\n      pop\n        /* \"#utility.yul\":3508:3512   */\n      dup1\n        /* \"#utility.yul\":3467:3514   */\n    tag_88:\n        /* \"#utility.yul\":3563:3565   */\n      0x1f\n        /* \"#utility.yul\":3558:3561   */\n      dup5\n        /* \"#utility.yul\":3554:3566   */\n      add\n        /* \"#utility.yul\":3551:3552   */\n      0x05\n        /* \"#utility.yul\":3547:3567   */\n      shr\n        /* \"#utility.yul\":3541:3545   */\n      dup3\n        /* \"#utility.yul\":3537:3568   */\n      add\n        /* \"#utility.yul\":3527:3568   */\n      swap2\n      pop\n        /* \"#utility.yul\":3618:3699   */\n    tag_89:\n        /* \"#utility.yul\":3636:3638   */\n      dup2\n        /* \"#utility.yul\":3629:3634   */\n      dup2\n        /* \"#utility.yul\":3626:3639   */\n      lt\n        /* \"#utility.yul\":3618:3699   */\n      iszero\n      tag_91\n      jumpi\n        /* \"#utility.yul\":3695:3696   */\n      0x00\n        /* \"#utility.yul\":3681:3697   */\n      dup2\n      sstore\n        /* \"#utility.yul\":3662:3663   */\n      0x01\n        /* \"#utility.yul\":3651:3664   */\n      add\n        /* \"#utility.yul\":3618:3699   */\n      jump(tag_89)\n    tag_91:\n        /* \"#utility.yul\":3622:3625   */\n      pop\n      pop\n        /* \"#utility.yul\":3288:3709   */\n    tag_87:\n        /* \"#utility.yul\":3197:3715   */\n      pop\n      pop\n      pop\n      jump\t// out\n        /* \"#utility.yul\":3891:5236   */\n    tag_38:\n        /* \"#utility.yul\":4017:4020   */\n      dup2\n        /* \"#utility.yul\":4011:4021   */\n      mload\n        /* \"#utility.yul\":4044:4062   */\n      0xffffffffffffffff\n        /* \"#utility.yul\":4036:4042   */\n      dup2\n        /* \"#utility.yul\":4033:4063   */\n      gt\n        /* \"#utility.yul\":4030:4086   */\n      iszero\n      tag_95\n      jumpi\n        /* \"#utility.yul\":4066:4084   */\n      tag_95\n      tag_50\n      jump\t// in\n    tag_95:\n        /* \"#utility.yul\":4095:4192   */\n      tag_96\n        /* \"#utility.yul\":4185:4191   */\n      dup2\n        /* \"#utility.yul\":4145:4183   */\n      tag_97\n        /* \"#utility.yul\":4177:4181   */\n      dup5\n        /* \"#utility.yul\":4171:4182   */\n      sload\n        /* \"#utility.yul\":4145:4183   */\n      tag_44\n      jump\t// in\n    tag_97:\n        /* \"#utility.yul\":4139:4143   */\n      dup5\n        /* \"#utility.yul\":4095:4192   */\n      tag_54\n      jump\t// in\n    tag_96:\n        /* \"#utility.yul\":4247:4251   */\n      0x20\n      dup1\n        /* \"#utility.yul\":4304:4306   */\n      0x1f\n        /* \"#utility.yul\":4293:4307   */\n      dup4\n      gt\n        /* \"#utility.yul\":4321:4322   */\n      0x01\n        /* \"#utility.yul\":4316:4979   */\n      dup2\n      eq\n      tag_99\n      jumpi\n        /* \"#utility.yul\":5023:5024   */\n      0x00\n        /* \"#utility.yul\":5040:5046   */\n      dup5\n        /* \"#utility.yul\":5037:5126   */\n      iszero\n      tag_100\n      jumpi\n      pop\n        /* \"#utility.yul\":5092:5111   */\n      dup6\n      dup4\n      add\n        /* \"#utility.yul\":5086:5112   */\n      mload\n        /* \"#utility.yul\":5037:5126   */\n    tag_100:\n      not(0x00)\n        /* \"#utility.yul\":3848:3849   */\n      0x03\n        /* \"#utility.yul\":3844:3855   */\n      dup7\n      swap1\n      shl\n        /* \"#utility.yul\":3840:3864   */\n      shr\n        /* \"#utility.yul\":3836:3865   */\n      not\n        /* \"#utility.yul\":3826:3866   */\n      and\n        /* \"#utility.yul\":3872:3873   */\n      0x01\n        /* \"#utility.yul\":3868:3879   */\n      dup6\n      swap1\n      shl\n        /* \"#utility.yul\":3823:3880   */\n      or\n        /* \"#utility.yul\":5139:5220   */\n      dup6\n      sstore\n        /* \"#utility.yul\":4286:5230   */\n      jump(tag_98)\n        /* \"#utility.yul\":4316:4979   */\n    tag_99:\n        /* \"#utility.yul\":3144:3145   */\n      0x00\n        /* \"#utility.yul\":3137:3151   */\n      dup6\n      dup2\n      mstore\n        /* \"#utility.yul\":3181:3185   */\n      0x20\n        /* \"#utility.yul\":3168:3186   */\n      dup2\n      keccak256\n      not(0x1f)\n        /* \"#utility.yul\":4352:4372   */\n      dup7\n      and\n      swap2\n        /* \"#utility.yul\":4470:4706   */\n    tag_103:\n        /* \"#utility.yul\":4484:4491   */\n      dup3\n        /* \"#utility.yul\":4481:4482   */\n      dup2\n        /* \"#utility.yul\":4478:4492   */\n      lt\n        /* \"#utility.yul\":4470:4706   */\n      iszero\n      tag_105\n      jumpi\n        /* \"#utility.yul\":4573:4592   */\n      dup9\n      dup7\n      add\n        /* \"#utility.yul\":4567:4593   */\n      mload\n        /* \"#utility.yul\":4552:4594   */\n      dup3\n      sstore\n        /* \"#utility.yul\":4665:4692   */\n      swap5\n      dup5\n      add\n      swap5\n        /* \"#utility.yul\":4633:4634   */\n      0x01\n        /* \"#utility.yul\":4621:4635   */\n      swap1\n      swap2\n      add\n      swap1\n        /* \"#utility.yul\":4500:4519   */\n      dup5\n      add\n        /* \"#utility.yul\":4470:4706   */\n      jump(tag_103)\n    tag_105:\n        /* \"#utility.yul\":4474:4477   */\n      pop\n        /* \"#utility.yul\":4734:4740   */\n      dup6\n        /* \"#utility.yul\":4725:4732   */\n      dup3\n        /* \"#utility.yul\":4722:4741   */\n      lt\n        /* \"#utility.yul\":4719:4920   */\n      iszero\n      tag_106\n      jumpi\n        /* \"#utility.yul\":4795:4814   */\n      dup8\n      dup6\n      add\n        /* \"#utility.yul\":4789:4815   */\n      mload\n      not(0x00)\n        /* \"#utility.yul\":4878:4879   */\n      0x03\n        /* \"#utility.yul\":4874:4888   */\n      dup9\n      swap1\n      shl\n        /* \"#utility.yul\":4890:4893   */\n      0xf8\n        /* \"#utility.yul\":4870:4894   */\n      and\n        /* \"#utility.yul\":4866:4903   */\n      shr\n        /* \"#utility.yul\":4862:4904   */\n      not\n        /* \"#utility.yul\":4847:4905   */\n      and\n        /* \"#utility.yul\":4832:4906   */\n      dup2\n      sstore\n        /* \"#utility.yul\":4719:4920   */\n    tag_106:\n      pop\n      pop\n        /* \"#utility.yul\":4966:4967   */\n      0x01\n        /* \"#utility.yul\":4957:4963   */\n      dup5\n        /* \"#utility.yul\":4954:4955   */\n      0x01\n        /* \"#utility.yul\":4950:4964   */\n      shl\n        /* \"#utility.yul\":4946:4968   */\n      add\n        /* \"#utility.yul\":4940:4944   */\n      dup6\n        /* \"#utility.yul\":4933:4969   */\n      sstore\n        /* \"#utility.yul\":4286:5230   */\n    tag_98:\n      pop\n      pop\n      pop\n      pop\n        /* \"#utility.yul\":3891:5236   */\n      pop\n      pop\n      jump\t// out\n        /* \"#utility.yul\":5241:5530   */\n    tag_40:\n        /* \"#utility.yul\":5372:5375   */\n      0x00\n        /* \"#utility.yul\":5410:5416   */\n      dup3\n        /* \"#utility.yul\":5404:5417   */\n      mload\n        /* \"#utility.yul\":5426:5492   */\n      tag_108\n        /* \"#utility.yul\":5485:5491   */\n      dup2\n        /* \"#utility.yul\":5480:5483   */\n      dup5\n        /* \"#utility.yul\":5473:5477   */\n      0x20\n        /* \"#utility.yul\":5465:5471   */\n      dup8\n        /* \"#utility.yul\":5461:5478   */\n      add\n        /* \"#utility.yul\":5426:5492   */\n      tag_52\n      jump\t// in\n    tag_108:\n        /* \"#utility.yul\":5508:5524   */\n      swap2\n      swap1\n      swap2\n      add\n      swap3\n        /* \"#utility.yul\":5241:5530   */\n      swap2\n      pop\n      pop\n      jump\t// out\n\n    auxdata: 0xa264697066735822122019dbb1cbaedf2210ee87b895e0e117046d8c78f4fb0e667e7d496b3225e8fc6864736f6c63430008180033\n}\n",
				"bytecode": {
					"linkReferences": {},
					"object": "608060405234801561000f575f80fd5b506105778061001d5f395ff3fe608060405234801561000f575f80fd5b5060043610610060575f3560e01c80632cb777a6146100645780636057361d1461007f5780637230bce81461009357806392fc46ae146100a65780639e7a13ad146100d1578063a6b7fc5b146100f2575b5f80fd5b61006c5f5481565b6040519081526020015b60405180910390f35b61009161008d366004610255565b5f55565b005b6100916100a1366004610309565b6100f9565b61006c6100b436600461034d565b805160208183018101805160028252928201919093012091525481565b6100e46100df366004610255565b6101a1565b6040516100769291906103a9565b5f5461006c565b60408051808201909152828152602081018281526001805480820182555f91909152825160029091027fb10e2d527612073b26eecdfd717e6a320cf44b4afac2b0732d9fcbe2b7fa0cf68101918255915190917fb10e2d527612073b26eecdfd717e6a320cf44b4afac2b0732d9fcbe2b7fa0cf701906101799082610466565b5050508160028260405161018d9190610526565b908152604051908190036020019020555050565b600181815481106101b0575f80fd5b5f91825260209091206002909102018054600182018054919350906101d4906103e2565b80601f0160208091040260200160405190810160405280929190818152602001828054610200906103e2565b801561024b5780601f106102225761010080835404028352916020019161024b565b820191905f5260205f20905b81548152906001019060200180831161022e57829003601f168201915b5050505050905082565b5f60208284031215610265575f80fd5b5035919050565b634e487b7160e01b5f52604160045260245ffd5b5f82601f83011261028f575f80fd5b813567ffffffffffffffff808211156102aa576102aa61026c565b604051601f8301601f19908116603f011681019082821181831017156102d2576102d261026c565b816040528381528660208588010111156102ea575f80fd5b836020870160208301375f602085830101528094505050505092915050565b5f806040838503121561031a575f80fd5b82359150602083013567ffffffffffffffff811115610337575f80fd5b61034385828601610280565b9150509250929050565b5f6020828403121561035d575f80fd5b813567ffffffffffffffff811115610373575f80fd5b61037f84828501610280565b949350505050565b5f5b838110156103a1578181015183820152602001610389565b50505f910152565b828152604060208201525f82518060408401526103cd816060850160208701610387565b601f01601f1916919091016060019392505050565b600181811c908216806103f657607f821691505b60208210810361041457634e487b7160e01b5f52602260045260245ffd5b50919050565b601f82111561046157805f5260205f20601f840160051c8101602085101561043f5750805b601f840160051c820191505b8181101561045e575f815560010161044b565b50505b505050565b815167ffffffffffffffff8111156104805761048061026c565b6104948161048e84546103e2565b8461041a565b602080601f8311600181146104c7575f84156104b05750858301515b5f19600386901b1c1916600185901b17855561051e565b5f85815260208120601f198616915b828110156104f5578886015182559484019460019091019084016104d6565b508582101561051257878501515f19600388901b60f8161c191681555b505060018460011b0185555b505050505050565b5f8251610537818460208701610387565b919091019291505056fea264697066735822122019dbb1cbaedf2210ee87b895e0e117046d8c78f4fb0e667e7d496b3225e8fc6864736f6c63430008180033",
					"opcodes": "PUSH1 0x80 PUSH1 0x40 MSTORE CALLVALUE DUP1 ISZERO PUSH2 0xF JUMPI PUSH0 DUP1 REVERT JUMPDEST POP PUSH2 0x577 DUP1 PUSH2 0x1D PUSH0 CODECOPY PUSH0 RETURN INVALID PUSH1 0x80 PUSH1 0x40 MSTORE CALLVALUE DUP1 ISZERO PUSH2 0xF JUMPI PUSH0 DUP1 REVERT JUMPDEST POP PUSH1 0x4 CALLDATASIZE LT PUSH2 0x60 JUMPI PUSH0 CALLDATALOAD PUSH1 0xE0 SHR DUP1 PUSH4 0x2CB777A6 EQ PUSH2 0x64 JUMPI DUP1 PUSH4 0x6057361D EQ PUSH2 0x7F JUMPI DUP1 PUSH4 0x7230BCE8 EQ PUSH2 0x93 JUMPI DUP1 PUSH4 0x92FC46AE EQ PUSH2 0xA6 JUMPI DUP1 PUSH4 0x9E7A13AD EQ PUSH2 0xD1 JUMPI DUP1 PUSH4 0xA6B7FC5B EQ PUSH2 0xF2 JUMPI JUMPDEST PUSH0 DUP1 REVERT JUMPDEST PUSH2 0x6C PUSH0 SLOAD DUP2 JUMP JUMPDEST PUSH1 0x40 MLOAD SWAP1 DUP2 MSTORE PUSH1 0x20 ADD JUMPDEST PUSH1 0x40 MLOAD DUP1 SWAP2 SUB SWAP1 RETURN JUMPDEST PUSH2 0x91 PUSH2 0x8D CALLDATASIZE PUSH1 0x4 PUSH2 0x255 JUMP JUMPDEST PUSH0 SSTORE JUMP JUMPDEST STOP JUMPDEST PUSH2 0x91 PUSH2 0xA1 CALLDATASIZE PUSH1 0x4 PUSH2 0x309 JUMP JUMPDEST PUSH2 0xF9 JUMP JUMPDEST PUSH2 0x6C PUSH2 0xB4 CALLDATASIZE PUSH1 0x4 PUSH2 0x34D JUMP JUMPDEST DUP1 MLOAD PUSH1 0x20 DUP2 DUP4 ADD DUP2 ADD DUP1 MLOAD PUSH1 0x2 DUP3 MSTORE SWAP3 DUP3 ADD SWAP2 SWAP1 SWAP4 ADD KECCAK256 SWAP2 MSTORE SLOAD DUP2 JUMP JUMPDEST PUSH2 0xE4 PUSH2 0xDF CALLDATASIZE PUSH1 0x4 PUSH2 0x255 JUMP JUMPDEST PUSH2 0x1A1 JUMP JUMPDEST PUSH1 0x40 MLOAD PUSH2 0x76 SWAP3 SWAP2 SWAP1 PUSH2 0x3A9 JUMP JUMPDEST PUSH0 SLOAD PUSH2 0x6C JUMP JUMPDEST PUSH1 0x40 DUP1 MLOAD DUP1 DUP3 ADD SWAP1 SWAP2 MSTORE DUP3 DUP2 MSTORE PUSH1 0x20 DUP2 ADD DUP3 DUP2 MSTORE PUSH1 0x1 DUP1 SLOAD DUP1 DUP3 ADD DUP3 SSTORE PUSH0 SWAP2 SWAP1 SWAP2 MSTORE DUP3 MLOAD PUSH1 0x2 SWAP1 SWAP2 MUL PUSH32 0xB10E2D527612073B26EECDFD717E6A320CF44B4AFAC2B0732D9FCBE2B7FA0CF6 DUP2 ADD SWAP2 DUP3 SSTORE SWAP2 MLOAD SWAP1 SWAP2 PUSH32 0xB10E2D527612073B26EECDFD717E6A320CF44B4AFAC2B0732D9FCBE2B7FA0CF7 ADD SWAP1 PUSH2 0x179 SWAP1 DUP3 PUSH2 0x466 JUMP JUMPDEST POP POP POP DUP2 PUSH1 0x2 DUP3 PUSH1 0x40 MLOAD PUSH2 0x18D SWAP2 SWAP1 PUSH2 0x526 JUMP JUMPDEST SWAP1 DUP2 MSTORE PUSH1 0x40 MLOAD SWAP1 DUP2 SWAP1 SUB PUSH1 0x20 ADD SWAP1 KECCAK256 SSTORE POP POP JUMP JUMPDEST PUSH1 0x1 DUP2 DUP2 SLOAD DUP2 LT PUSH2 0x1B0 JUMPI PUSH0 DUP1 REVERT JUMPDEST PUSH0 SWAP2 DUP3 MSTORE PUSH1 0x20 SWAP1 SWAP2 KECCAK256 PUSH1 0x2 SWAP1 SWAP2 MUL ADD DUP1 SLOAD PUSH1 0x1 DUP3 ADD DUP1 SLOAD SWAP2 SWAP4 POP SWAP1 PUSH2 0x1D4 SWAP1 PUSH2 0x3E2 JUMP JUMPDEST DUP1 PUSH1 0x1F ADD PUSH1 0x20 DUP1 SWAP2 DIV MUL PUSH1 0x20 ADD PUSH1 0x40 MLOAD SWAP1 DUP2 ADD PUSH1 0x40 MSTORE DUP1 SWAP3 SWAP2 SWAP1 DUP2 DUP2 MSTORE PUSH1 0x20 ADD DUP3 DUP1 SLOAD PUSH2 0x200 SWAP1 PUSH2 0x3E2 JUMP JUMPDEST DUP1 ISZERO PUSH2 0x24B JUMPI DUP1 PUSH1 0x1F LT PUSH2 0x222 JUMPI PUSH2 0x100 DUP1 DUP4 SLOAD DIV MUL DUP4 MSTORE SWAP2 PUSH1 0x20 ADD SWAP2 PUSH2 0x24B JUMP JUMPDEST DUP3 ADD SWAP2 SWAP1 PUSH0 MSTORE PUSH1 0x20 PUSH0 KECCAK256 SWAP1 JUMPDEST DUP2 SLOAD DUP2 MSTORE SWAP1 PUSH1 0x1 ADD SWAP1 PUSH1 0x20 ADD DUP1 DUP4 GT PUSH2 0x22E JUMPI DUP3 SWAP1 SUB PUSH1 0x1F AND DUP3 ADD SWAP2 JUMPDEST POP POP POP POP POP SWAP1 POP DUP3 JUMP JUMPDEST PUSH0 PUSH1 0x20 DUP3 DUP5 SUB SLT ISZERO PUSH2 0x265 JUMPI PUSH0 DUP1 REVERT JUMPDEST POP CALLDATALOAD SWAP2 SWAP1 POP JUMP JUMPDEST PUSH4 0x4E487B71 PUSH1 0xE0 SHL PUSH0 MSTORE PUSH1 0x41 PUSH1 0x4 MSTORE PUSH1 0x24 PUSH0 REVERT JUMPDEST PUSH0 DUP3 PUSH1 0x1F DUP4 ADD SLT PUSH2 0x28F JUMPI PUSH0 DUP1 REVERT JUMPDEST DUP2 CALLDATALOAD PUSH8 0xFFFFFFFFFFFFFFFF DUP1 DUP3 GT ISZERO PUSH2 0x2AA JUMPI PUSH2 0x2AA PUSH2 0x26C JUMP JUMPDEST PUSH1 0x40 MLOAD PUSH1 0x1F DUP4 ADD PUSH1 0x1F NOT SWAP1 DUP2 AND PUSH1 0x3F ADD AND DUP2 ADD SWAP1 DUP3 DUP3 GT DUP2 DUP4 LT OR ISZERO PUSH2 0x2D2 JUMPI PUSH2 0x2D2 PUSH2 0x26C JUMP JUMPDEST DUP2 PUSH1 0x40 MSTORE DUP4 DUP2 MSTORE DUP7 PUSH1 0x20 DUP6 DUP9 ADD ADD GT ISZERO PUSH2 0x2EA JUMPI PUSH0 DUP1 REVERT JUMPDEST DUP4 PUSH1 0x20 DUP8 ADD PUSH1 0x20 DUP4 ADD CALLDATACOPY PUSH0 PUSH1 0x20 DUP6 DUP4 ADD ADD MSTORE DUP1 SWAP5 POP POP POP POP POP SWAP3 SWAP2 POP POP JUMP JUMPDEST PUSH0 DUP1 PUSH1 0x40 DUP4 DUP6 SUB SLT ISZERO PUSH2 0x31A JUMPI PUSH0 DUP1 REVERT JUMPDEST DUP3 CALLDATALOAD SWAP2 POP PUSH1 0x20 DUP4 ADD CALLDATALOAD PUSH8 0xFFFFFFFFFFFFFFFF DUP2 GT ISZERO PUSH2 0x337 JUMPI PUSH0 DUP1 REVERT JUMPDEST PUSH2 0x343 DUP6 DUP3 DUP7 ADD PUSH2 0x280 JUMP JUMPDEST SWAP2 POP POP SWAP3 POP SWAP3 SWAP1 POP JUMP JUMPDEST PUSH0 PUSH1 0x20 DUP3 DUP5 SUB SLT ISZERO PUSH2 0x35D JUMPI PUSH0 DUP1 REVERT JUMPDEST DUP2 CALLDATALOAD PUSH8 0xFFFFFFFFFFFFFFFF DUP2 GT ISZERO PUSH2 0x373 JUMPI PUSH0 DUP1 REVERT JUMPDEST PUSH2 0x37F DUP5 DUP3 DUP6 ADD PUSH2 0x280 JUMP JUMPDEST SWAP5 SWAP4 POP POP POP POP JUMP JUMPDEST PUSH0 JUMPDEST DUP4 DUP2 LT ISZERO PUSH2 0x3A1 JUMPI DUP2 DUP2 ADD MLOAD DUP4 DUP3 ADD MSTORE PUSH1 0x20 ADD PUSH2 0x389 JUMP JUMPDEST POP POP PUSH0 SWAP2 ADD MSTORE JUMP JUMPDEST DUP3 DUP2 MSTORE PUSH1 0x40 PUSH1 0x20 DUP3 ADD MSTORE PUSH0 DUP3 MLOAD DUP1 PUSH1 0x40 DUP5 ADD MSTORE PUSH2 0x3CD DUP2 PUSH1 0x60 DUP6 ADD PUSH1 0x20 DUP8 ADD PUSH2 0x387 JUMP JUMPDEST PUSH1 0x1F ADD PUSH1 0x1F NOT AND SWAP2 SWAP1 SWAP2 ADD PUSH1 0x60 ADD SWAP4 SWAP3 POP POP POP JUMP JUMPDEST PUSH1 0x1 DUP2 DUP2 SHR SWAP1 DUP3 AND DUP1 PUSH2 0x3F6 JUMPI PUSH1 0x7F DUP3 AND SWAP2 POP JUMPDEST PUSH1 0x20 DUP3 LT DUP2 SUB PUSH2 0x414 JUMPI PUSH4 0x4E487B71 PUSH1 0xE0 SHL PUSH0 MSTORE PUSH1 0x22 PUSH1 0x4 MSTORE PUSH1 0x24 PUSH0 REVERT JUMPDEST POP SWAP2 SWAP1 POP JUMP JUMPDEST PUSH1 0x1F DUP3 GT ISZERO PUSH2 0x461 JUMPI DUP1 PUSH0 MSTORE PUSH1 0x20 PUSH0 KECCAK256 PUSH1 0x1F DUP5 ADD PUSH1 0x5 SHR DUP2 ADD PUSH1 0x20 DUP6 LT ISZERO PUSH2 0x43F JUMPI POP DUP1 JUMPDEST PUSH1 0x1F DUP5 ADD PUSH1 0x5 SHR DUP3 ADD SWAP2 POP JUMPDEST DUP2 DUP2 LT ISZERO PUSH2 0x45E JUMPI PUSH0 DUP2 SSTORE PUSH1 0x1 ADD PUSH2 0x44B JUMP JUMPDEST POP POP JUMPDEST POP POP POP JUMP JUMPDEST DUP2 MLOAD PUSH8 0xFFFFFFFFFFFFFFFF DUP2 GT ISZERO PUSH2 0x480 JUMPI PUSH2 0x480 PUSH2 0x26C JUMP JUMPDEST PUSH2 0x494 DUP2 PUSH2 0x48E DUP5 SLOAD PUSH2 0x3E2 JUMP JUMPDEST DUP5 PUSH2 0x41A JUMP JUMPDEST PUSH1 0x20 DUP1 PUSH1 0x1F DUP4 GT PUSH1 0x1 DUP2 EQ PUSH2 0x4C7 JUMPI PUSH0 DUP5 ISZERO PUSH2 0x4B0 JUMPI POP DUP6 DUP4 ADD MLOAD JUMPDEST PUSH0 NOT PUSH1 0x3 DUP7 SWAP1 SHL SHR NOT AND PUSH1 0x1 DUP6 SWAP1 SHL OR DUP6 SSTORE PUSH2 0x51E JUMP JUMPDEST PUSH0 DUP6 DUP2 MSTORE PUSH1 0x20 DUP2 KECCAK256 PUSH1 0x1F NOT DUP7 AND SWAP2 JUMPDEST DUP3 DUP2 LT ISZERO PUSH2 0x4F5 JUMPI DUP9 DUP7 ADD MLOAD DUP3 SSTORE SWAP5 DUP5 ADD SWAP5 PUSH1 0x1 SWAP1 SWAP2 ADD SWAP1 DUP5 ADD PUSH2 0x4D6 JUMP JUMPDEST POP DUP6 DUP3 LT ISZERO PUSH2 0x512 JUMPI DUP8 DUP6 ADD MLOAD PUSH0 NOT PUSH1 0x3 DUP9 SWAP1 SHL PUSH1 0xF8 AND SHR NOT AND DUP2 SSTORE JUMPDEST POP POP PUSH1 0x1 DUP5 PUSH1 0x1 SHL ADD DUP6 SSTORE JUMPDEST POP POP POP POP POP POP JUMP JUMPDEST PUSH0 DUP3 MLOAD PUSH2 0x537 DUP2 DUP5 PUSH1 0x20 DUP8 ADD PUSH2 0x387 JUMP JUMPDEST SWAP2 SWAP1 SWAP2 ADD SWAP3 SWAP2 POP POP JUMP INVALID LOG2 PUSH5 0x6970667358 0x22 SLT KECCAK256 NOT 0xDB 0xB1 0xCB 0xAE 0xDF 0x22 LT 0xEE DUP8 0xB8 SWAP6 0xE0 0xE1 OR DIV PUSH14 0x8C78F4FB0E667E7D496B3225E8FC PUSH9 0x64736F6C6343000818 STOP CALLER "
				},
				"gasEstimates": {
					"creation": {
						"codeDepositCost": "279800",
						"executionCost": "316",
						"totalCost": "280116"
					},
					"external": {
						"add(uint256,string)": "infinite",
						"myInt()": "2260",
						"people(uint256)": "infinite",
						"peopleMap(string)": "infinite",
						"retrive()": "2367",
						"store(uint256)": "22309"
					}
				},
				"methodIdentifiers": {
					"add(uint256,string)": "7230bce8",
					"myInt()": "2cb777a6",
					"people(uint256)": "9e7a13ad",
					"peopleMap(string)": "92fc46ae",
					"retrive()": "a6b7fc5b",
					"store(uint256)": "6057361d"
				}
			},
			"storageLayout": {
				"storage": [
					{
						"astId": 3,
						"contract": "SimpleStorage.sol:SimpleStorage",
						"label": "myInt",
						"offset": 0,
						"slot": "0",
						"type": "t_uint256"
					},
					{
						"astId": 22,
						"contract": "SimpleStorage.sol:SimpleStorage",
						"label": "people",
						"offset": 0,
						"slot": "1",
						"type": "t_array(t_struct(Person)18_storage)dyn_storage"
					},
					{
						"astId": 26,
						"contract": "SimpleStorage.sol:SimpleStorage",
						"label": "peopleMap",
						"offset": 0,
						"slot": "2",
						"type": "t_mapping(t_string_memory_ptr,t_uint256)"
					}
				],
				"types": {
					"t_array(t_struct(Person)18_storage)dyn_storage": {
						"base": "t_struct(Person)18_storage",
						"encoding": "dynamic_array",
						"label": "struct SimpleStorage.Person[]",
						"numberOfBytes": "32"
					},
					"t_mapping(t_string_memory_ptr,t_uint256)": {
						"encoding": "mapping",
						"key": "t_string_memory_ptr",
						"label": "mapping(string => uint256)",
						"numberOfBytes": "32",
						"value": "t_uint256"
					},
					"t_string_memory_ptr": {
						"encoding": "bytes",
						"label": "string",
						"numberOfBytes": "32"
					},
					"t_string_storage": {
						"encoding": "bytes",
						"label": "string",
						"numberOfBytes": "32"
					},
					"t_struct(Person)18_storage": {
						"encoding": "inplace",
						"label": "struct SimpleStorage.Person",
						"members": [
							{
								"astId": 15,
								"contract": "SimpleStorage.sol:SimpleStorage",
								"label": "age",
								"offset": 0,
								"slot": "0",
								"type": "t_uint256"
							},
							{
								"astId": 17,
								"contract": "SimpleStorage.sol:SimpleStorage",
								"label": "name",
								"offset": 0,
								"slot": "1",
								"type": "t_string_storage"
							}
						],
						"numberOfBytes": "64"
					},
					"t_uint256": {
						"encoding": "inplace",
						"label": "uint256",
						"numberOfBytes": "32"
					}
				}
			},
			"userdoc": {
				"kind": "user",
				"methods": {},
				"version": 1
			}
		}
	}
}