{
	"contracts/SimpleStorage.sol": {
		"SimpleStorage": {
			"abi": [
				{
					"inputs": [
						{
							"internalType": "string",
							"name": "_name",
							"type": "string"
						},
						{
							"internalType": "uint256",
							"name": "_favoriteNumber",
							"type": "uint256"
						}
					],
					"name": "addPerson",
					"outputs": [],
					"stateMutability": "nonpayable",
					"type": "function"
				},
				{
					"inputs": [
						{
							"internalType": "uint256",
							"name": "",
							"type": "uint256"
						}
					],
					"name": "listOfPeople",
					"outputs": [
						{
							"internalType": "uint256",
							"name": "favoriteNumber",
							"type": "uint256"
						},
						{
							"internalType": "string",
							"name": "name",
							"type": "string"
						}
					],
					"stateMutability": "view",
					"type": "function"
				},
				{
					"inputs": [
						{
							"internalType": "string",
							"name": "",
							"type": "string"
						}
					],
					"name": "nameToFavoriteNumber",
					"outputs": [
						{
							"internalType": "uint256",
							"name": "",
							"type": "uint256"
						}
					],
					"stateMutability": "view",
					"type": "function"
				},
				{
					"inputs": [],
					"name": "retrieve",
					"outputs": [
						{
							"internalType": "uint256",
							"name": "",
							"type": "uint256"
						}
					],
					"stateMutability": "view",
					"type": "function"
				},
				{
					"inputs": [
						{
							"internalType": "uint256",
							"name": "_favoriteNumber",
							"type": "uint256"
						}
					],
					"name": "store",
					"outputs": [],
					"stateMutability": "nonpayable",
					"type": "function"
				}
			],
			"devdoc": {
				"kind": "dev",
				"methods": {},
				"version": 1
			},
			"evm": {
				"assembly": "    /* \"contracts/SimpleStorage.sol\":129:823  contract SimpleStorage {... */\n  mstore(0x40, 0x80)\n  callvalue\n  dup1\n  iszero\n  tag_1\n  jumpi\n  0x00\n  dup1\n  revert\ntag_1:\n  pop\n  dataSize(sub_0)\n  dup1\n  dataOffset(sub_0)\n  0x00\n  codecopy\n  0x00\n  return\nstop\n\nsub_0: assembly {\n        /* \"contracts/SimpleStorage.sol\":129:823  contract SimpleStorage {... */\n      mstore(0x40, 0x80)\n      callvalue\n      dup1\n      iszero\n      tag_1\n      jumpi\n      0x00\n      dup1\n      revert\n    tag_1:\n      pop\n      jumpi(tag_2, lt(calldatasize, 0x04))\n      shr(0xe0, calldataload(0x00))\n      dup1\n      0x2e64cec1\n      eq\n      tag_3\n      jumpi\n      dup1\n      0x2ebce631\n      eq\n      tag_4\n      jumpi\n      dup1\n      0x6057361d\n      eq\n      tag_5\n      jumpi\n      dup1\n      0x6f760f41\n      eq\n      tag_6\n      jumpi\n      dup1\n      0x8bab8dd5\n      eq\n      tag_7\n      jumpi\n    tag_2:\n      0x00\n      dup1\n      revert\n        /* \"contracts/SimpleStorage.sol\":524:616  function retrieve() public view returns (uint256) {... */\n    tag_3:\n        /* \"contracts/SimpleStorage.sol\":565:572  uint256 */\n      0x00\n        /* \"contracts/SimpleStorage.sol\":592:608  myFavoriteNumber */\n      sload\n        /* \"contracts/SimpleStorage.sol\":524:616  function retrieve() public view returns (uint256) {... */\n    tag_8:\n      mload(0x40)\n        /* \"#utility.yul\":160:185   */\n      swap1\n      dup2\n      mstore\n        /* \"#utility.yul\":148:150   */\n      0x20\n        /* \"#utility.yul\":133:151   */\n      add\n        /* \"contracts/SimpleStorage.sol\":524:616  function retrieve() public view returns (uint256) {... */\n    tag_10:\n      mload(0x40)\n      dup1\n      swap2\n      sub\n      swap1\n      return\n        /* \"contracts/SimpleStorage.sol\":309:337  Person[] public listOfPeople */\n    tag_4:\n      tag_12\n      tag_13\n      calldatasize\n      0x04\n      tag_14\n      jump\t// in\n    tag_13:\n      tag_15\n      jump\t// in\n    tag_12:\n      mload(0x40)\n      tag_10\n      swap3\n      swap2\n      swap1\n      tag_17\n      jump\t// in\n        /* \"contracts/SimpleStorage.sol\":409:516  function store(uint256 _favoriteNumber) public virtual{... */\n    tag_5:\n      tag_18\n      tag_19\n      calldatasize\n      0x04\n      tag_14\n      jump\t// in\n    tag_19:\n        /* \"contracts/SimpleStorage.sol\":474:490  myFavoriteNumber */\n      0x00\n        /* \"contracts/SimpleStorage.sol\":474:508  myFavoriteNumber = _favoriteNumber */\n      sstore\n        /* \"contracts/SimpleStorage.sol\":409:516  function store(uint256 _favoriteNumber) public virtual{... */\n      jump\n    tag_18:\n      stop\n        /* \"contracts/SimpleStorage.sol\":624:820  function addPerson(string memory _name, uint256 _favoriteNumber) public {... */\n    tag_6:\n      tag_18\n      tag_22\n      calldatasize\n      0x04\n      tag_23\n      jump\t// in\n    tag_22:\n      tag_24\n      jump\t// in\n        /* \"contracts/SimpleStorage.sol\":346:400  mapping(string => uint256) public nameToFavoriteNumber */\n    tag_7:\n      tag_8\n      tag_26\n      calldatasize\n      0x04\n      tag_27\n      jump\t// in\n    tag_26:\n      dup1\n      mload\n      0x20\n      dup2\n      dup4\n      add\n      dup2\n      add\n      dup1\n      mload\n      0x02\n      dup3\n      mstore\n      swap3\n      dup3\n      add\n      swap2\n      swap1\n      swap4\n      add\n      keccak256\n      swap2\n      mstore\n      sload\n      dup2\n      jump\n        /* \"contracts/SimpleStorage.sol\":309:337  Person[] public listOfPeople */\n    tag_15:\n      0x01\n      dup2\n      dup2\n      sload\n      dup2\n      lt\n      tag_31\n      jumpi\n      0x00\n      dup1\n      revert\n    tag_31:\n      0x00\n      swap2\n      dup3\n      mstore\n      0x20\n      swap1\n      swap2\n      keccak256\n      0x02\n      swap1\n      swap2\n      mul\n      add\n      dup1\n      sload\n      0x01\n      dup3\n      add\n      dup1\n      sload\n      swap2\n      swap4\n      pop\n      swap1\n      tag_33\n      swap1\n      tag_34\n      jump\t// in\n    tag_33:\n      dup1\n      0x1f\n      add\n      0x20\n      dup1\n      swap2\n      div\n      mul\n      0x20\n      add\n      mload(0x40)\n      swap1\n      dup2\n      add\n      0x40\n      mstore\n      dup1\n      swap3\n      swap2\n      swap1\n      dup2\n      dup2\n      mstore\n      0x20\n      add\n      dup3\n      dup1\n      sload\n      tag_35\n      swap1\n      tag_34\n      jump\t// in\n    tag_35:\n      dup1\n      iszero\n      tag_36\n      jumpi\n      dup1\n      0x1f\n      lt\n      tag_37\n      jumpi\n      0x0100\n      dup1\n      dup4\n      sload\n      div\n      mul\n      dup4\n      mstore\n      swap2\n      0x20\n      add\n      swap2\n      jump(tag_36)\n    tag_37:\n      dup3\n      add\n      swap2\n      swap1\n      0x00\n      mstore\n      keccak256(0x00, 0x20)\n      swap1\n    tag_38:\n      dup2\n      sload\n      dup2\n      mstore\n      swap1\n      0x01\n      add\n      swap1\n      0x20\n      add\n      dup1\n      dup4\n      gt\n      tag_38\n      jumpi\n      dup3\n      swap1\n      sub\n      0x1f\n      and\n      dup3\n      add\n      swap2\n    tag_36:\n      pop\n      pop\n      pop\n      pop\n      pop\n      swap1\n      pop\n      dup3\n      jump\t// out\n        /* \"contracts/SimpleStorage.sol\":624:820  function addPerson(string memory _name, uint256 _favoriteNumber) public {... */\n    tag_24:\n        /* \"contracts/SimpleStorage.sol\":725:755  Person(_favoriteNumber, _name) */\n      0x40\n      dup1\n      mload\n      dup1\n      dup3\n      add\n      swap1\n      swap2\n      mstore\n      dup2\n      dup2\n      mstore\n      0x20\n      dup2\n      add\n      dup4\n      dup2\n      mstore\n        /* \"contracts/SimpleStorage.sol\":707:719  listOfPeople */\n      0x01\n        /* \"contracts/SimpleStorage.sol\":707:756  listOfPeople.push(Person(_favoriteNumber, _name)) */\n      dup1\n      sload\n      dup1\n      dup3\n      add\n      dup3\n      sstore\n      0x00\n      swap2\n      swap1\n      swap2\n      mstore\n      dup3\n      mload\n      0x02\n      swap1\n      swap2\n      mul\n      0xb10e2d527612073b26eecdfd717e6a320cf44b4afac2b0732d9fcbe2b7fa0cf6\n      dup2\n      add\n      swap2\n      dup3\n      sstore\n      swap2\n      mload\n      swap1\n      swap2\n      0xb10e2d527612073b26eecdfd717e6a320cf44b4afac2b0732d9fcbe2b7fa0cf7\n      add\n      swap1\n      tag_42\n      swap1\n      dup3\n      tag_43\n      jump\t// in\n    tag_42:\n      pop\n      pop\n      pop\n        /* \"contracts/SimpleStorage.sol\":797:812  _favoriteNumber */\n      dup1\n        /* \"contracts/SimpleStorage.sol\":767:787  nameToFavoriteNumber */\n      0x02\n        /* \"contracts/SimpleStorage.sol\":788:793  _name */\n      dup4\n        /* \"contracts/SimpleStorage.sol\":767:794  nameToFavoriteNumber[_name] */\n      mload(0x40)\n      tag_44\n      swap2\n      swap1\n      tag_45\n      jump\t// in\n    tag_44:\n      swap1\n      dup2\n      mstore\n      mload(0x40)\n      swap1\n      dup2\n      swap1\n      sub\n      0x20\n      add\n      swap1\n      keccak256\n        /* \"contracts/SimpleStorage.sol\":767:812  nameToFavoriteNumber[_name] = _favoriteNumber */\n      sstore\n      pop\n      pop\n        /* \"contracts/SimpleStorage.sol\":624:820  function addPerson(string memory _name, uint256 _favoriteNumber) public {... */\n      jump\t// out\n        /* \"#utility.yul\":196:422   */\n    tag_14:\n        /* \"#utility.yul\":255:261   */\n      0x00\n        /* \"#utility.yul\":308:310   */\n      0x20\n        /* \"#utility.yul\":296:305   */\n      dup3\n        /* \"#utility.yul\":287:294   */\n      dup5\n        /* \"#utility.yul\":283:306   */\n      sub\n        /* \"#utility.yul\":279:311   */\n      slt\n        /* \"#utility.yul\":276:328   */\n      iszero\n      tag_54\n      jumpi\n        /* \"#utility.yul\":324:325   */\n      0x00\n        /* \"#utility.yul\":321:322   */\n      dup1\n        /* \"#utility.yul\":314:326   */\n      revert\n        /* \"#utility.yul\":276:328   */\n    tag_54:\n      pop\n        /* \"#utility.yul\":369:392   */\n      calldataload\n      swap2\n        /* \"#utility.yul\":196:422   */\n      swap1\n      pop\n      jump\t// out\n        /* \"#utility.yul\":427:916   */\n    tag_17:\n        /* \"#utility.yul\":604:610   */\n      dup3\n        /* \"#utility.yul\":593:602   */\n      dup2\n        /* \"#utility.yul\":586:611   */\n      mstore\n        /* \"#utility.yul\":647:649   */\n      0x40\n        /* \"#utility.yul\":642:644   */\n      0x20\n        /* \"#utility.yul\":631:640   */\n      dup3\n        /* \"#utility.yul\":627:645   */\n      add\n        /* \"#utility.yul\":620:650   */\n      mstore\n        /* \"#utility.yul\":567:571   */\n      0x00\n        /* \"#utility.yul\":679:685   */\n      dup3\n        /* \"#utility.yul\":673:686   */\n      mload\n        /* \"#utility.yul\":722:728   */\n      dup1\n        /* \"#utility.yul\":717:719   */\n      0x40\n        /* \"#utility.yul\":706:715   */\n      dup5\n        /* \"#utility.yul\":702:720   */\n      add\n        /* \"#utility.yul\":695:729   */\n      mstore\n        /* \"#utility.yul\":781:787   */\n      dup1\n        /* \"#utility.yul\":776:778   */\n      0x20\n        /* \"#utility.yul\":768:774   */\n      dup6\n        /* \"#utility.yul\":764:779   */\n      add\n        /* \"#utility.yul\":759:761   */\n      0x60\n        /* \"#utility.yul\":748:757   */\n      dup6\n        /* \"#utility.yul\":744:762   */\n      add\n        /* \"#utility.yul\":738:788   */\n      mcopy\n        /* \"#utility.yul\":837:838   */\n      0x00\n        /* \"#utility.yul\":832:834   */\n      0x60\n        /* \"#utility.yul\":823:829   */\n      dup3\n        /* \"#utility.yul\":812:821   */\n      dup6\n        /* \"#utility.yul\":808:830   */\n      add\n        /* \"#utility.yul\":804:835   */\n      add\n        /* \"#utility.yul\":797:839   */\n      mstore\n        /* \"#utility.yul\":907:909   */\n      0x60\n        /* \"#utility.yul\":900:902   */\n      0x1f\n        /* \"#utility.yul\":896:903   */\n      not\n        /* \"#utility.yul\":891:893   */\n      0x1f\n        /* \"#utility.yul\":883:889   */\n      dup4\n        /* \"#utility.yul\":879:894   */\n      add\n        /* \"#utility.yul\":875:904   */\n      and\n        /* \"#utility.yul\":864:873   */\n      dup5\n        /* \"#utility.yul\":860:905   */\n      add\n        /* \"#utility.yul\":856:910   */\n      add\n        /* \"#utility.yul\":848:910   */\n      swap2\n      pop\n      pop\n        /* \"#utility.yul\":427:916   */\n      swap4\n      swap3\n      pop\n      pop\n      pop\n      jump\t// out\n        /* \"#utility.yul\":921:1048   */\n    tag_46:\n        /* \"#utility.yul\":982:992   */\n      0x4e487b71\n        /* \"#utility.yul\":977:980   */\n      0xe0\n        /* \"#utility.yul\":973:993   */\n      shl\n        /* \"#utility.yul\":970:971   */\n      0x00\n        /* \"#utility.yul\":963:994   */\n      mstore\n        /* \"#utility.yul\":1013:1017   */\n      0x41\n        /* \"#utility.yul\":1010:1011   */\n      0x04\n        /* \"#utility.yul\":1003:1018   */\n      mstore\n        /* \"#utility.yul\":1037:1041   */\n      0x24\n        /* \"#utility.yul\":1034:1035   */\n      0x00\n        /* \"#utility.yul\":1027:1042   */\n      revert\n        /* \"#utility.yul\":1053:1779   */\n    tag_47:\n        /* \"#utility.yul\":1096:1101   */\n      0x00\n        /* \"#utility.yul\":1149:1152   */\n      dup3\n        /* \"#utility.yul\":1142:1146   */\n      0x1f\n        /* \"#utility.yul\":1134:1140   */\n      dup4\n        /* \"#utility.yul\":1130:1147   */\n      add\n        /* \"#utility.yul\":1126:1153   */\n      slt\n        /* \"#utility.yul\":1116:1171   */\n      tag_58\n      jumpi\n        /* \"#utility.yul\":1167:1168   */\n      0x00\n        /* \"#utility.yul\":1164:1165   */\n      dup1\n        /* \"#utility.yul\":1157:1169   */\n      revert\n        /* \"#utility.yul\":1116:1171   */\n    tag_58:\n        /* \"#utility.yul\":1207:1213   */\n      dup2\n        /* \"#utility.yul\":1194:1214   */\n      calldataload\n        /* \"#utility.yul\":1237:1255   */\n      0xffffffffffffffff\n        /* \"#utility.yul\":1229:1235   */\n      dup2\n        /* \"#utility.yul\":1226:1256   */\n      gt\n        /* \"#utility.yul\":1223:1279   */\n      iszero\n      tag_60\n      jumpi\n        /* \"#utility.yul\":1259:1277   */\n      tag_60\n      tag_46\n      jump\t// in\n    tag_60:\n        /* \"#utility.yul\":1308:1310   */\n      0x40\n        /* \"#utility.yul\":1302:1311   */\n      mload\n        /* \"#utility.yul\":1400:1402   */\n      0x1f\n        /* \"#utility.yul\":1362:1379   */\n      dup3\n      add\n      not(0x1f)\n        /* \"#utility.yul\":1358:1389   */\n      swap1\n      dup2\n      and\n        /* \"#utility.yul\":1391:1393   */\n      0x3f\n        /* \"#utility.yul\":1354:1394   */\n      add\n        /* \"#utility.yul\":1350:1404   */\n      and\n        /* \"#utility.yul\":1338:1405   */\n      dup2\n      add\n        /* \"#utility.yul\":1435:1453   */\n      0xffffffffffffffff\n        /* \"#utility.yul\":1420:1454   */\n      dup2\n      gt\n        /* \"#utility.yul\":1456:1478   */\n      dup3\n      dup3\n      lt\n        /* \"#utility.yul\":1417:1479   */\n      or\n        /* \"#utility.yul\":1414:1502   */\n      iszero\n      tag_62\n      jumpi\n        /* \"#utility.yul\":1482:1500   */\n      tag_62\n      tag_46\n      jump\t// in\n    tag_62:\n        /* \"#utility.yul\":1518:1520   */\n      0x40\n        /* \"#utility.yul\":1511:1533   */\n      mstore\n        /* \"#utility.yul\":1542:1564   */\n      dup2\n      dup2\n      mstore\n        /* \"#utility.yul\":1583:1602   */\n      dup4\n      dup3\n      add\n        /* \"#utility.yul\":1604:1608   */\n      0x20\n        /* \"#utility.yul\":1579:1609   */\n      add\n        /* \"#utility.yul\":1576:1615   */\n      dup6\n      lt\n        /* \"#utility.yul\":1573:1632   */\n      iszero\n      tag_63\n      jumpi\n        /* \"#utility.yul\":1628:1629   */\n      0x00\n        /* \"#utility.yul\":1625:1626   */\n      dup1\n        /* \"#utility.yul\":1618:1630   */\n      revert\n        /* \"#utility.yul\":1573:1632   */\n    tag_63:\n        /* \"#utility.yul\":1692:1698   */\n      dup2\n        /* \"#utility.yul\":1685:1689   */\n      0x20\n        /* \"#utility.yul\":1677:1683   */\n      dup6\n        /* \"#utility.yul\":1673:1690   */\n      add\n        /* \"#utility.yul\":1666:1670   */\n      0x20\n        /* \"#utility.yul\":1658:1664   */\n      dup4\n        /* \"#utility.yul\":1654:1671   */\n      add\n        /* \"#utility.yul\":1641:1699   */\n      calldatacopy\n        /* \"#utility.yul\":1747:1748   */\n      0x00\n        /* \"#utility.yul\":1719:1738   */\n      swap2\n      dup2\n      add\n        /* \"#utility.yul\":1740:1744   */\n      0x20\n        /* \"#utility.yul\":1715:1745   */\n      add\n        /* \"#utility.yul\":1708:1749   */\n      swap2\n      swap1\n      swap2\n      mstore\n        /* \"#utility.yul\":1723:1729   */\n      swap4\n        /* \"#utility.yul\":1053:1779   */\n      swap3\n      pop\n      pop\n      pop\n      jump\t// out\n        /* \"#utility.yul\":1784:2220   */\n    tag_23:\n        /* \"#utility.yul\":1862:1868   */\n      0x00\n        /* \"#utility.yul\":1870:1876   */\n      dup1\n        /* \"#utility.yul\":1923:1925   */\n      0x40\n        /* \"#utility.yul\":1911:1920   */\n      dup4\n        /* \"#utility.yul\":1902:1909   */\n      dup6\n        /* \"#utility.yul\":1898:1921   */\n      sub\n        /* \"#utility.yul\":1894:1926   */\n      slt\n        /* \"#utility.yul\":1891:1943   */\n      iszero\n      tag_65\n      jumpi\n        /* \"#utility.yul\":1939:1940   */\n      0x00\n        /* \"#utility.yul\":1936:1937   */\n      dup1\n        /* \"#utility.yul\":1929:1941   */\n      revert\n        /* \"#utility.yul\":1891:1943   */\n    tag_65:\n        /* \"#utility.yul\":1979:1988   */\n      dup3\n        /* \"#utility.yul\":1966:1989   */\n      calldataload\n        /* \"#utility.yul\":2012:2030   */\n      0xffffffffffffffff\n        /* \"#utility.yul\":2004:2010   */\n      dup2\n        /* \"#utility.yul\":2001:2031   */\n      gt\n        /* \"#utility.yul\":1998:2048   */\n      iszero\n      tag_66\n      jumpi\n        /* \"#utility.yul\":2044:2045   */\n      0x00\n        /* \"#utility.yul\":2041:2042   */\n      dup1\n        /* \"#utility.yul\":2034:2046   */\n      revert\n        /* \"#utility.yul\":1998:2048   */\n    tag_66:\n        /* \"#utility.yul\":2067:2117   */\n      tag_67\n        /* \"#utility.yul\":2109:2116   */\n      dup6\n        /* \"#utility.yul\":2100:2106   */\n      dup3\n        /* \"#utility.yul\":2089:2098   */\n      dup7\n        /* \"#utility.yul\":2085:2107   */\n      add\n        /* \"#utility.yul\":2067:2117   */\n      tag_47\n      jump\t// in\n    tag_67:\n        /* \"#utility.yul\":2057:2117   */\n      swap6\n        /* \"#utility.yul\":2186:2188   */\n      0x20\n        /* \"#utility.yul\":2171:2189   */\n      swap5\n      swap1\n      swap5\n      add\n        /* \"#utility.yul\":2158:2190   */\n      calldataload\n      swap5\n      pop\n      pop\n      pop\n      pop\n        /* \"#utility.yul\":1784:2220   */\n      jump\t// out\n        /* \"#utility.yul\":2225:2547   */\n    tag_27:\n        /* \"#utility.yul\":2294:2300   */\n      0x00\n        /* \"#utility.yul\":2347:2349   */\n      0x20\n        /* \"#utility.yul\":2335:2344   */\n      dup3\n        /* \"#utility.yul\":2326:2333   */\n      dup5\n        /* \"#utility.yul\":2322:2345   */\n      sub\n        /* \"#utility.yul\":2318:2350   */\n      slt\n        /* \"#utility.yul\":2315:2367   */\n      iszero\n      tag_69\n      jumpi\n        /* \"#utility.yul\":2363:2364   */\n      0x00\n        /* \"#utility.yul\":2360:2361   */\n      dup1\n        /* \"#utility.yul\":2353:2365   */\n      revert\n        /* \"#utility.yul\":2315:2367   */\n    tag_69:\n        /* \"#utility.yul\":2403:2412   */\n      dup2\n        /* \"#utility.yul\":2390:2413   */\n      calldataload\n        /* \"#utility.yul\":2436:2454   */\n      0xffffffffffffffff\n        /* \"#utility.yul\":2428:2434   */\n      dup2\n        /* \"#utility.yul\":2425:2455   */\n      gt\n        /* \"#utility.yul\":2422:2472   */\n      iszero\n      tag_70\n      jumpi\n        /* \"#utility.yul\":2468:2469   */\n      0x00\n        /* \"#utility.yul\":2465:2466   */\n      dup1\n        /* \"#utility.yul\":2458:2470   */\n      revert\n        /* \"#utility.yul\":2422:2472   */\n    tag_70:\n        /* \"#utility.yul\":2491:2541   */\n      tag_71\n        /* \"#utility.yul\":2533:2540   */\n      dup5\n        /* \"#utility.yul\":2524:2530   */\n      dup3\n        /* \"#utility.yul\":2513:2522   */\n      dup6\n        /* \"#utility.yul\":2509:2531   */\n      add\n        /* \"#utility.yul\":2491:2541   */\n      tag_47\n      jump\t// in\n    tag_71:\n        /* \"#utility.yul\":2481:2541   */\n      swap5\n        /* \"#utility.yul\":2225:2547   */\n      swap4\n      pop\n      pop\n      pop\n      pop\n      jump\t// out\n        /* \"#utility.yul\":2552:2932   */\n    tag_34:\n        /* \"#utility.yul\":2631:2632   */\n      0x01\n        /* \"#utility.yul\":2627:2639   */\n      dup2\n      dup2\n      shr\n      swap1\n        /* \"#utility.yul\":2674:2686   */\n      dup3\n      and\n      dup1\n        /* \"#utility.yul\":2695:2756   */\n      tag_73\n      jumpi\n        /* \"#utility.yul\":2749:2753   */\n      0x7f\n        /* \"#utility.yul\":2741:2747   */\n      dup3\n        /* \"#utility.yul\":2737:2754   */\n      and\n        /* \"#utility.yul\":2727:2754   */\n      swap2\n      pop\n        /* \"#utility.yul\":2695:2756   */\n    tag_73:\n        /* \"#utility.yul\":2802:2804   */\n      0x20\n        /* \"#utility.yul\":2794:2800   */\n      dup3\n        /* \"#utility.yul\":2791:2805   */\n      lt\n        /* \"#utility.yul\":2771:2789   */\n      dup2\n        /* \"#utility.yul\":2768:2806   */\n      sub\n        /* \"#utility.yul\":2765:2926   */\n      tag_74\n      jumpi\n        /* \"#utility.yul\":2848:2858   */\n      0x4e487b71\n        /* \"#utility.yul\":2843:2846   */\n      0xe0\n        /* \"#utility.yul\":2839:2859   */\n      shl\n        /* \"#utility.yul\":2836:2837   */\n      0x00\n        /* \"#utility.yul\":2829:2860   */\n      mstore\n        /* \"#utility.yul\":2883:2887   */\n      0x22\n        /* \"#utility.yul\":2880:2881   */\n      0x04\n        /* \"#utility.yul\":2873:2888   */\n      mstore\n        /* \"#utility.yul\":2911:2915   */\n      0x24\n        /* \"#utility.yul\":2908:2909   */\n      0x00\n        /* \"#utility.yul\":2901:2916   */\n      revert\n        /* \"#utility.yul\":2765:2926   */\n    tag_74:\n      pop\n        /* \"#utility.yul\":2552:2932   */\n      swap2\n      swap1\n      pop\n      jump\t// out\n        /* \"#utility.yul\":3063:3581   */\n    tag_49:\n        /* \"#utility.yul\":3165:3167   */\n      0x1f\n        /* \"#utility.yul\":3160:3163   */\n      dup3\n        /* \"#utility.yul\":3157:3168   */\n      gt\n        /* \"#utility.yul\":3154:3575   */\n      iszero\n      tag_77\n      jumpi\n        /* \"#utility.yul\":3201:3206   */\n      dup1\n        /* \"#utility.yul\":3198:3199   */\n      0x00\n        /* \"#utility.yul\":3191:3207   */\n      mstore\n        /* \"#utility.yul\":3245:3249   */\n      0x20\n        /* \"#utility.yul\":3242:3243   */\n      0x00\n        /* \"#utility.yul\":3232:3250   */\n      keccak256\n        /* \"#utility.yul\":3315:3317   */\n      0x1f\n        /* \"#utility.yul\":3303:3313   */\n      dup5\n        /* \"#utility.yul\":3299:3318   */\n      add\n        /* \"#utility.yul\":3296:3297   */\n      0x05\n        /* \"#utility.yul\":3292:3319   */\n      shr\n        /* \"#utility.yul\":3286:3290   */\n      dup2\n        /* \"#utility.yul\":3282:3320   */\n      add\n        /* \"#utility.yul\":3351:3355   */\n      0x20\n        /* \"#utility.yul\":3339:3349   */\n      dup6\n        /* \"#utility.yul\":3336:3356   */\n      lt\n        /* \"#utility.yul\":3333:3380   */\n      iszero\n      tag_78\n      jumpi\n      pop\n        /* \"#utility.yul\":3374:3378   */\n      dup1\n        /* \"#utility.yul\":3333:3380   */\n    tag_78:\n        /* \"#utility.yul\":3429:3431   */\n      0x1f\n        /* \"#utility.yul\":3424:3427   */\n      dup5\n        /* \"#utility.yul\":3420:3432   */\n      add\n        /* \"#utility.yul\":3417:3418   */\n      0x05\n        /* \"#utility.yul\":3413:3433   */\n      shr\n        /* \"#utility.yul\":3407:3411   */\n      dup3\n        /* \"#utility.yul\":3403:3434   */\n      add\n        /* \"#utility.yul\":3393:3434   */\n      swap2\n      pop\n        /* \"#utility.yul\":3484:3565   */\n    tag_79:\n        /* \"#utility.yul\":3502:3504   */\n      dup2\n        /* \"#utility.yul\":3495:3500   */\n      dup2\n        /* \"#utility.yul\":3492:3505   */\n      lt\n        /* \"#utility.yul\":3484:3565   */\n      iszero\n      tag_81\n      jumpi\n        /* \"#utility.yul\":3561:3562   */\n      0x00\n        /* \"#utility.yul\":3547:3563   */\n      dup2\n      sstore\n        /* \"#utility.yul\":3528:3529   */\n      0x01\n        /* \"#utility.yul\":3517:3530   */\n      add\n        /* \"#utility.yul\":3484:3565   */\n      jump(tag_79)\n    tag_81:\n        /* \"#utility.yul\":3488:3491   */\n      pop\n      pop\n        /* \"#utility.yul\":3154:3575   */\n    tag_77:\n        /* \"#utility.yul\":3063:3581   */\n      pop\n      pop\n      pop\n      jump\t// out\n        /* \"#utility.yul\":3757:5056   */\n    tag_43:\n        /* \"#utility.yul\":3883:3886   */\n      dup2\n        /* \"#utility.yul\":3877:3887   */\n      mload\n        /* \"#utility.yul\":3910:3928   */\n      0xffffffffffffffff\n        /* \"#utility.yul\":3902:3908   */\n      dup2\n        /* \"#utility.yul\":3899:3929   */\n      gt\n        /* \"#utility.yul\":3896:3952   */\n      iszero\n      tag_85\n      jumpi\n        /* \"#utility.yul\":3932:3950   */\n      tag_85\n      tag_46\n      jump\t// in\n    tag_85:\n        /* \"#utility.yul\":3961:4058   */\n      tag_86\n        /* \"#utility.yul\":4051:4057   */\n      dup2\n        /* \"#utility.yul\":4011:4049   */\n      tag_87\n        /* \"#utility.yul\":4043:4047   */\n      dup5\n        /* \"#utility.yul\":4037:4048   */\n      sload\n        /* \"#utility.yul\":4011:4049   */\n      tag_34\n      jump\t// in\n    tag_87:\n        /* \"#utility.yul\":4005:4009   */\n      dup5\n        /* \"#utility.yul\":3961:4058   */\n      tag_49\n      jump\t// in\n    tag_86:\n        /* \"#utility.yul\":4107:4111   */\n      0x20\n        /* \"#utility.yul\":4138:4140   */\n      0x1f\n        /* \"#utility.yul\":4127:4141   */\n      dup3\n      gt\n        /* \"#utility.yul\":4155:4156   */\n      0x01\n        /* \"#utility.yul\":4150:4799   */\n      dup2\n      eq\n      tag_89\n      jumpi\n        /* \"#utility.yul\":4843:4844   */\n      0x00\n        /* \"#utility.yul\":4860:4866   */\n      dup4\n        /* \"#utility.yul\":4857:4946   */\n      iszero\n      tag_90\n      jumpi\n      pop\n        /* \"#utility.yul\":4912:4931   */\n      dup5\n      dup3\n      add\n        /* \"#utility.yul\":4906:4932   */\n      mload\n        /* \"#utility.yul\":4857:4946   */\n    tag_90:\n      not(0x00)\n        /* \"#utility.yul\":3714:3715   */\n      0x03\n        /* \"#utility.yul\":3710:3721   */\n      dup6\n      swap1\n      shl\n        /* \"#utility.yul\":3706:3730   */\n      shr\n        /* \"#utility.yul\":3702:3731   */\n      not\n        /* \"#utility.yul\":3692:3732   */\n      and\n        /* \"#utility.yul\":3738:3739   */\n      0x01\n        /* \"#utility.yul\":3734:3745   */\n      dup5\n      swap1\n      shl\n        /* \"#utility.yul\":3689:3746   */\n      or\n        /* \"#utility.yul\":4959:5040   */\n      dup5\n      sstore\n        /* \"#utility.yul\":4120:5050   */\n      jump(tag_81)\n        /* \"#utility.yul\":4150:4799   */\n    tag_89:\n        /* \"#utility.yul\":3010:3011   */\n      0x00\n        /* \"#utility.yul\":3003:3017   */\n      dup5\n      dup2\n      mstore\n        /* \"#utility.yul\":3047:3051   */\n      0x20\n        /* \"#utility.yul\":3034:3052   */\n      dup2\n      keccak256\n      not(0x1f)\n        /* \"#utility.yul\":4186:4206   */\n      dup6\n      and\n      swap2\n        /* \"#utility.yul\":4304:4526   */\n    tag_93:\n        /* \"#utility.yul\":4318:4325   */\n      dup3\n        /* \"#utility.yul\":4315:4316   */\n      dup2\n        /* \"#utility.yul\":4312:4326   */\n      lt\n        /* \"#utility.yul\":4304:4526   */\n      iszero\n      tag_95\n      jumpi\n        /* \"#utility.yul\":4400:4419   */\n      dup8\n      dup6\n      add\n        /* \"#utility.yul\":4394:4420   */\n      mload\n        /* \"#utility.yul\":4379:4421   */\n      dup3\n      sstore\n        /* \"#utility.yul\":4507:4511   */\n      0x20\n        /* \"#utility.yul\":4492:4512   */\n      swap5\n      dup6\n      add\n      swap5\n        /* \"#utility.yul\":4460:4461   */\n      0x01\n        /* \"#utility.yul\":4448:4462   */\n      swap1\n      swap3\n      add\n      swap2\n        /* \"#utility.yul\":4334:4346   */\n      add\n        /* \"#utility.yul\":4304:4526   */\n      jump(tag_93)\n    tag_95:\n        /* \"#utility.yul\":4308:4311   */\n      pop\n        /* \"#utility.yul\":4554:4560   */\n      dup5\n        /* \"#utility.yul\":4545:4552   */\n      dup3\n        /* \"#utility.yul\":4542:4561   */\n      lt\n        /* \"#utility.yul\":4539:4740   */\n      iszero\n      tag_96\n      jumpi\n        /* \"#utility.yul\":4615:4634   */\n      dup7\n      dup5\n      add\n        /* \"#utility.yul\":4609:4635   */\n      mload\n      not(0x00)\n        /* \"#utility.yul\":4698:4699   */\n      0x03\n        /* \"#utility.yul\":4694:4708   */\n      dup8\n      swap1\n      shl\n        /* \"#utility.yul\":4710:4713   */\n      0xf8\n        /* \"#utility.yul\":4690:4714   */\n      and\n        /* \"#utility.yul\":4686:4723   */\n      shr\n        /* \"#utility.yul\":4682:4724   */\n      not\n        /* \"#utility.yul\":4667:4725   */\n      and\n        /* \"#utility.yul\":4652:4726   */\n      dup2\n      sstore\n        /* \"#utility.yul\":4539:4740   */\n    tag_96:\n      pop\n      pop\n      pop\n      pop\n        /* \"#utility.yul\":4786:4787   */\n      0x01\n        /* \"#utility.yul\":4770:4784   */\n      swap1\n      dup2\n      shl\n        /* \"#utility.yul\":4766:4788   */\n      add\n        /* \"#utility.yul\":4753:4789   */\n      swap1\n      sstore\n      pop\n        /* \"#utility.yul\":3757:5056   */\n      jump\t// out\n        /* \"#utility.yul\":5061:5364   */\n    tag_45:\n        /* \"#utility.yul\":5192:5195   */\n      0x00\n        /* \"#utility.yul\":5230:5236   */\n      dup3\n        /* \"#utility.yul\":5224:5237   */\n      mload\n        /* \"#utility.yul\":5276:5282   */\n      dup1\n        /* \"#utility.yul\":5269:5273   */\n      0x20\n        /* \"#utility.yul\":5261:5267   */\n      dup6\n        /* \"#utility.yul\":5257:5274   */\n      add\n        /* \"#utility.yul\":5252:5255   */\n      dup5\n        /* \"#utility.yul\":5246:5283   */\n      mcopy\n        /* \"#utility.yul\":5338:5339   */\n      0x00\n        /* \"#utility.yul\":5302:5318   */\n      swap3\n      add\n        /* \"#utility.yul\":5327:5340   */\n      swap2\n      dup3\n      mstore\n      pop\n        /* \"#utility.yul\":5302:5318   */\n      swap2\n        /* \"#utility.yul\":5061:5364   */\n      swap1\n      pop\n      jump\t// out\n\n    auxdata: 0xa26469706673582212201e148648d1a81680715eced7fcca5ee23397fd2bbe53369edb33b60545823f5164736f6c634300081a0033\n}\n",
				"bytecode": {
					"linkReferences": {},
					"object": "6080604052348015600e575f80fd5b506105378061001c5f395ff3fe608060405234801561000f575f80fd5b5060043610610055575f3560e01c80632e64cec1146100595780632ebce6311461006f5780636057361d146100905780636f760f41146100a45780638bab8dd5146100b7575b5f80fd5b5f545b6040519081526020015b60405180910390f35b61008261007d36600461023e565b6100e2565b604051610066929190610255565b6100a261009e36600461023e565b5f55565b005b6100a26100b2366004610330565b610196565b61005c6100c5366004610372565b805160208183018101805160028252928201919093012091525481565b600181815481106100f1575f80fd5b5f9182526020909120600290910201805460018201805491935090610115906103ac565b80601f0160208091040260200160405190810160405280929190818152602001828054610141906103ac565b801561018c5780601f106101635761010080835404028352916020019161018c565b820191905f5260205f20905b81548152906001019060200180831161016f57829003601f168201915b5050505050905082565b60408051808201909152818152602081018381526001805480820182555f91909152825160029091027fb10e2d527612073b26eecdfd717e6a320cf44b4afac2b0732d9fcbe2b7fa0cf68101918255915190917fb10e2d527612073b26eecdfd717e6a320cf44b4afac2b0732d9fcbe2b7fa0cf701906102169082610430565b5050508060028360405161022a91906104eb565b908152604051908190036020019020555050565b5f6020828403121561024e575f80fd5b5035919050565b828152604060208201525f82518060408401528060208501606085015e5f606082850101526060601f19601f8301168401019150509392505050565b634e487b7160e01b5f52604160045260245ffd5b5f82601f8301126102b4575f80fd5b813567ffffffffffffffff8111156102ce576102ce610291565b604051601f8201601f19908116603f0116810167ffffffffffffffff811182821017156102fd576102fd610291565b604052818152838201602001851015610314575f80fd5b816020850160208301375f918101602001919091529392505050565b5f8060408385031215610341575f80fd5b823567ffffffffffffffff811115610357575f80fd5b610363858286016102a5565b95602094909401359450505050565b5f60208284031215610382575f80fd5b813567ffffffffffffffff811115610398575f80fd5b6103a4848285016102a5565b949350505050565b600181811c908216806103c057607f821691505b6020821081036103de57634e487b7160e01b5f52602260045260245ffd5b50919050565b601f82111561042b57805f5260205f20601f840160051c810160208510156104095750805b601f840160051c820191505b81811015610428575f8155600101610415565b50505b505050565b815167ffffffffffffffff81111561044a5761044a610291565b61045e8161045884546103ac565b846103e4565b6020601f821160018114610490575f83156104795750848201515b5f19600385901b1c1916600184901b178455610428565b5f84815260208120601f198516915b828110156104bf578785015182556020948501946001909201910161049f565b50848210156104dc57868401515f19600387901b60f8161c191681555b50505050600190811b01905550565b5f82518060208501845e5f92019182525091905056fea26469706673582212201e148648d1a81680715eced7fcca5ee23397fd2bbe53369edb33b60545823f5164736f6c634300081a0033",
					"opcodes": "PUSH1 0x80 PUSH1 0x40 MSTORE CALLVALUE DUP1 ISZERO PUSH1 0xE JUMPI PUSH0 DUP1 REVERT JUMPDEST POP PUSH2 0x537 DUP1 PUSH2 0x1C PUSH0 CODECOPY PUSH0 RETURN INVALID PUSH1 0x80 PUSH1 0x40 MSTORE CALLVALUE DUP1 ISZERO PUSH2 0xF JUMPI PUSH0 DUP1 REVERT JUMPDEST POP PUSH1 0x4 CALLDATASIZE LT PUSH2 0x55 JUMPI PUSH0 CALLDATALOAD PUSH1 0xE0 SHR DUP1 PUSH4 0x2E64CEC1 EQ PUSH2 0x59 JUMPI DUP1 PUSH4 0x2EBCE631 EQ PUSH2 0x6F JUMPI DUP1 PUSH4 0x6057361D EQ PUSH2 0x90 JUMPI DUP1 PUSH4 0x6F760F41 EQ PUSH2 0xA4 JUMPI DUP1 PUSH4 0x8BAB8DD5 EQ PUSH2 0xB7 JUMPI JUMPDEST PUSH0 DUP1 REVERT JUMPDEST PUSH0 SLOAD JUMPDEST PUSH1 0x40 MLOAD SWAP1 DUP2 MSTORE PUSH1 0x20 ADD JUMPDEST PUSH1 0x40 MLOAD DUP1 SWAP2 SUB SWAP1 RETURN JUMPDEST PUSH2 0x82 PUSH2 0x7D CALLDATASIZE PUSH1 0x4 PUSH2 0x23E JUMP JUMPDEST PUSH2 0xE2 JUMP JUMPDEST PUSH1 0x40 MLOAD PUSH2 0x66 SWAP3 SWAP2 SWAP1 PUSH2 0x255 JUMP JUMPDEST PUSH2 0xA2 PUSH2 0x9E CALLDATASIZE PUSH1 0x4 PUSH2 0x23E JUMP JUMPDEST PUSH0 SSTORE JUMP JUMPDEST STOP JUMPDEST PUSH2 0xA2 PUSH2 0xB2 CALLDATASIZE PUSH1 0x4 PUSH2 0x330 JUMP JUMPDEST PUSH2 0x196 JUMP JUMPDEST PUSH2 0x5C PUSH2 0xC5 CALLDATASIZE PUSH1 0x4 PUSH2 0x372 JUMP JUMPDEST DUP1 MLOAD PUSH1 0x20 DUP2 DUP4 ADD DUP2 ADD DUP1 MLOAD PUSH1 0x2 DUP3 MSTORE SWAP3 DUP3 ADD SWAP2 SWAP1 SWAP4 ADD KECCAK256 SWAP2 MSTORE SLOAD DUP2 JUMP JUMPDEST PUSH1 0x1 DUP2 DUP2 SLOAD DUP2 LT PUSH2 0xF1 JUMPI PUSH0 DUP1 REVERT JUMPDEST PUSH0 SWAP2 DUP3 MSTORE PUSH1 0x20 SWAP1 SWAP2 KECCAK256 PUSH1 0x2 SWAP1 SWAP2 MUL ADD DUP1 SLOAD PUSH1 0x1 DUP3 ADD DUP1 SLOAD SWAP2 SWAP4 POP SWAP1 PUSH2 0x115 SWAP1 PUSH2 0x3AC JUMP JUMPDEST DUP1 PUSH1 0x1F ADD PUSH1 0x20 DUP1 SWAP2 DIV MUL PUSH1 0x20 ADD PUSH1 0x40 MLOAD SWAP1 DUP2 ADD PUSH1 0x40 MSTORE DUP1 SWAP3 SWAP2 SWAP1 DUP2 DUP2 MSTORE PUSH1 0x20 ADD DUP3 DUP1 SLOAD PUSH2 0x141 SWAP1 PUSH2 0x3AC JUMP JUMPDEST DUP1 ISZERO PUSH2 0x18C JUMPI DUP1 PUSH1 0x1F LT PUSH2 0x163 JUMPI PUSH2 0x100 DUP1 DUP4 SLOAD DIV MUL DUP4 MSTORE SWAP2 PUSH1 0x20 ADD SWAP2 PUSH2 0x18C JUMP JUMPDEST DUP3 ADD SWAP2 SWAP1 PUSH0 MSTORE PUSH1 0x20 PUSH0 KECCAK256 SWAP1 JUMPDEST DUP2 SLOAD DUP2 MSTORE SWAP1 PUSH1 0x1 ADD SWAP1 PUSH1 0x20 ADD DUP1 DUP4 GT PUSH2 0x16F JUMPI DUP3 SWAP1 SUB PUSH1 0x1F AND DUP3 ADD SWAP2 JUMPDEST POP POP POP POP POP SWAP1 POP DUP3 JUMP JUMPDEST PUSH1 0x40 DUP1 MLOAD DUP1 DUP3 ADD SWAP1 SWAP2 MSTORE DUP2 DUP2 MSTORE PUSH1 0x20 DUP2 ADD DUP4 DUP2 MSTORE PUSH1 0x1 DUP1 SLOAD DUP1 DUP3 ADD DUP3 SSTORE PUSH0 SWAP2 SWAP1 SWAP2 MSTORE DUP3 MLOAD PUSH1 0x2 SWAP1 SWAP2 MUL PUSH32 0xB10E2D527612073B26EECDFD717E6A320CF44B4AFAC2B0732D9FCBE2B7FA0CF6 DUP2 ADD SWAP2 DUP3 SSTORE SWAP2 MLOAD SWAP1 SWAP2 PUSH32 0xB10E2D527612073B26EECDFD717E6A320CF44B4AFAC2B0732D9FCBE2B7FA0CF7 ADD SWAP1 PUSH2 0x216 SWAP1 DUP3 PUSH2 0x430 JUMP JUMPDEST POP POP POP DUP1 PUSH1 0x2 DUP4 PUSH1 0x40 MLOAD PUSH2 0x22A SWAP2 SWAP1 PUSH2 0x4EB JUMP JUMPDEST SWAP1 DUP2 MSTORE PUSH1 0x40 MLOAD SWAP1 DUP2 SWAP1 SUB PUSH1 0x20 ADD SWAP1 KECCAK256 SSTORE POP POP JUMP JUMPDEST PUSH0 PUSH1 0x20 DUP3 DUP5 SUB SLT ISZERO PUSH2 0x24E JUMPI PUSH0 DUP1 REVERT JUMPDEST POP CALLDATALOAD SWAP2 SWAP1 POP JUMP JUMPDEST DUP3 DUP2 MSTORE PUSH1 0x40 PUSH1 0x20 DUP3 ADD MSTORE PUSH0 DUP3 MLOAD DUP1 PUSH1 0x40 DUP5 ADD MSTORE DUP1 PUSH1 0x20 DUP6 ADD PUSH1 0x60 DUP6 ADD MCOPY PUSH0 PUSH1 0x60 DUP3 DUP6 ADD ADD MSTORE PUSH1 0x60 PUSH1 0x1F NOT PUSH1 0x1F DUP4 ADD AND DUP5 ADD ADD SWAP2 POP POP SWAP4 SWAP3 POP POP POP JUMP JUMPDEST PUSH4 0x4E487B71 PUSH1 0xE0 SHL PUSH0 MSTORE PUSH1 0x41 PUSH1 0x4 MSTORE PUSH1 0x24 PUSH0 REVERT JUMPDEST PUSH0 DUP3 PUSH1 0x1F DUP4 ADD SLT PUSH2 0x2B4 JUMPI PUSH0 DUP1 REVERT JUMPDEST DUP2 CALLDATALOAD PUSH8 0xFFFFFFFFFFFFFFFF DUP2 GT ISZERO PUSH2 0x2CE JUMPI PUSH2 0x2CE PUSH2 0x291 JUMP JUMPDEST PUSH1 0x40 MLOAD PUSH1 0x1F DUP3 ADD PUSH1 0x1F NOT SWAP1 DUP2 AND PUSH1 0x3F ADD AND DUP2 ADD PUSH8 0xFFFFFFFFFFFFFFFF DUP2 GT DUP3 DUP3 LT OR ISZERO PUSH2 0x2FD JUMPI PUSH2 0x2FD PUSH2 0x291 JUMP JUMPDEST PUSH1 0x40 MSTORE DUP2 DUP2 MSTORE DUP4 DUP3 ADD PUSH1 0x20 ADD DUP6 LT ISZERO PUSH2 0x314 JUMPI PUSH0 DUP1 REVERT JUMPDEST DUP2 PUSH1 0x20 DUP6 ADD PUSH1 0x20 DUP4 ADD CALLDATACOPY PUSH0 SWAP2 DUP2 ADD PUSH1 0x20 ADD SWAP2 SWAP1 SWAP2 MSTORE SWAP4 SWAP3 POP POP POP JUMP JUMPDEST PUSH0 DUP1 PUSH1 0x40 DUP4 DUP6 SUB SLT ISZERO PUSH2 0x341 JUMPI PUSH0 DUP1 REVERT JUMPDEST DUP3 CALLDATALOAD PUSH8 0xFFFFFFFFFFFFFFFF DUP2 GT ISZERO PUSH2 0x357 JUMPI PUSH0 DUP1 REVERT JUMPDEST PUSH2 0x363 DUP6 DUP3 DUP7 ADD PUSH2 0x2A5 JUMP JUMPDEST SWAP6 PUSH1 0x20 SWAP5 SWAP1 SWAP5 ADD CALLDATALOAD SWAP5 POP POP POP POP JUMP JUMPDEST PUSH0 PUSH1 0x20 DUP3 DUP5 SUB SLT ISZERO PUSH2 0x382 JUMPI PUSH0 DUP1 REVERT JUMPDEST DUP2 CALLDATALOAD PUSH8 0xFFFFFFFFFFFFFFFF DUP2 GT ISZERO PUSH2 0x398 JUMPI PUSH0 DUP1 REVERT JUMPDEST PUSH2 0x3A4 DUP5 DUP3 DUP6 ADD PUSH2 0x2A5 JUMP JUMPDEST SWAP5 SWAP4 POP POP POP POP JUMP JUMPDEST PUSH1 0x1 DUP2 DUP2 SHR SWAP1 DUP3 AND DUP1 PUSH2 0x3C0 JUMPI PUSH1 0x7F DUP3 AND SWAP2 POP JUMPDEST PUSH1 0x20 DUP3 LT DUP2 SUB PUSH2 0x3DE JUMPI PUSH4 0x4E487B71 PUSH1 0xE0 SHL PUSH0 MSTORE PUSH1 0x22 PUSH1 0x4 MSTORE PUSH1 0x24 PUSH0 REVERT JUMPDEST POP SWAP2 SWAP1 POP JUMP JUMPDEST PUSH1 0x1F DUP3 GT ISZERO PUSH2 0x42B JUMPI DUP1 PUSH0 MSTORE PUSH1 0x20 PUSH0 KECCAK256 PUSH1 0x1F DUP5 ADD PUSH1 0x5 SHR DUP2 ADD PUSH1 0x20 DUP6 LT ISZERO PUSH2 0x409 JUMPI POP DUP1 JUMPDEST PUSH1 0x1F DUP5 ADD PUSH1 0x5 SHR DUP3 ADD SWAP2 POP JUMPDEST DUP2 DUP2 LT ISZERO PUSH2 0x428 JUMPI PUSH0 DUP2 SSTORE PUSH1 0x1 ADD PUSH2 0x415 JUMP JUMPDEST POP POP JUMPDEST POP POP POP JUMP JUMPDEST DUP2 MLOAD PUSH8 0xFFFFFFFFFFFFFFFF DUP2 GT ISZERO PUSH2 0x44A JUMPI PUSH2 0x44A PUSH2 0x291 JUMP JUMPDEST PUSH2 0x45E DUP2 PUSH2 0x458 DUP5 SLOAD PUSH2 0x3AC JUMP JUMPDEST DUP5 PUSH2 0x3E4 JUMP JUMPDEST PUSH1 0x20 PUSH1 0x1F DUP3 GT PUSH1 0x1 DUP2 EQ PUSH2 0x490 JUMPI PUSH0 DUP4 ISZERO PUSH2 0x479 JUMPI POP DUP5 DUP3 ADD MLOAD JUMPDEST PUSH0 NOT PUSH1 0x3 DUP6 SWAP1 SHL SHR NOT AND PUSH1 0x1 DUP5 SWAP1 SHL OR DUP5 SSTORE PUSH2 0x428 JUMP JUMPDEST PUSH0 DUP5 DUP2 MSTORE PUSH1 0x20 DUP2 KECCAK256 PUSH1 0x1F NOT DUP6 AND SWAP2 JUMPDEST DUP3 DUP2 LT ISZERO PUSH2 0x4BF JUMPI DUP8 DUP6 ADD MLOAD DUP3 SSTORE PUSH1 0x20 SWAP5 DUP6 ADD SWAP5 PUSH1 0x1 SWAP1 SWAP3 ADD SWAP2 ADD PUSH2 0x49F JUMP JUMPDEST POP DUP5 DUP3 LT ISZERO PUSH2 0x4DC JUMPI DUP7 DUP5 ADD MLOAD PUSH0 NOT PUSH1 0x3 DUP8 SWAP1 SHL PUSH1 0xF8 AND SHR NOT AND DUP2 SSTORE JUMPDEST POP POP POP POP PUSH1 0x1 SWAP1 DUP2 SHL ADD SWAP1 SSTORE POP JUMP JUMPDEST PUSH0 DUP3 MLOAD DUP1 PUSH1 0x20 DUP6 ADD DUP5 MCOPY PUSH0 SWAP3 ADD SWAP2 DUP3 MSTORE POP SWAP2 SWAP1 POP JUMP INVALID LOG2 PUSH5 0x6970667358 0x22 SLT KECCAK256 0x1E EQ DUP7 BASEFEE 0xD1 0xA8 AND DUP1 PUSH18 0x5ECED7FCCA5EE23397FD2BBE53369EDB33B6 SDIV GASLIMIT DUP3 EXTCODEHASH MLOAD PUSH5 0x736F6C6343 STOP ADDMOD BYTE STOP CALLER "
				},
				"gasEstimates": {
					"creation": {
						"codeDepositCost": "267000",
						"executionCost": "304",
						"totalCost": "267304"
					},
					"external": {
						"addPerson(string,uint256)": "infinite",
						"listOfPeople(uint256)": "infinite",
						"nameToFavoriteNumber(string)": "infinite",
						"retrieve()": "2246",
						"store(uint256)": "22331"
					}
				},
				"methodIdentifiers": {
					"addPerson(string,uint256)": "6f760f41",
					"listOfPeople(uint256)": "2ebce631",
					"nameToFavoriteNumber(string)": "8bab8dd5",
					"retrieve()": "2e64cec1",
					"store(uint256)": "6057361d"
				}
			},
			"storageLayout": {
				"storage": [
					{
						"astId": 3,
						"contract": "contracts/SimpleStorage.sol:SimpleStorage",
						"label": "myFavoriteNumber",
						"offset": 0,
						"slot": "0",
						"type": "t_uint256"
					},
					{
						"astId": 12,
						"contract": "contracts/SimpleStorage.sol:SimpleStorage",
						"label": "listOfPeople",
						"offset": 0,
						"slot": "1",
						"type": "t_array(t_struct(Person)8_storage)dyn_storage"
					},
					{
						"astId": 16,
						"contract": "contracts/SimpleStorage.sol:SimpleStorage",
						"label": "nameToFavoriteNumber",
						"offset": 0,
						"slot": "2",
						"type": "t_mapping(t_string_memory_ptr,t_uint256)"
					}
				],
				"types": {
					"t_array(t_struct(Person)8_storage)dyn_storage": {
						"base": "t_struct(Person)8_storage",
						"encoding": "dynamic_array",
						"label": "struct SimpleStorage.Person[]",
						"numberOfBytes": "32"
					},
					"t_mapping(t_string_memory_ptr,t_uint256)": {
						"encoding": "mapping",
						"key": "t_string_memory_ptr",
						"label": "mapping(string => uint256)",
						"numberOfBytes": "32",
						"value": "t_uint256"
					},
					"t_string_memory_ptr": {
						"encoding": "bytes",
						"label": "string",
						"numberOfBytes": "32"
					},
					"t_string_storage": {
						"encoding": "bytes",
						"label": "string",
						"numberOfBytes": "32"
					},
					"t_struct(Person)8_storage": {
						"encoding": "inplace",
						"label": "struct SimpleStorage.Person",
						"members": [
							{
								"astId": 5,
								"contract": "contracts/SimpleStorage.sol:SimpleStorage",
								"label": "favoriteNumber",
								"offset": 0,
								"slot": "0",
								"type": "t_uint256"
							},
							{
								"astId": 7,
								"contract": "contracts/SimpleStorage.sol:SimpleStorage",
								"label": "name",
								"offset": 0,
								"slot": "1",
								"type": "t_string_storage"
							}
						],
						"numberOfBytes": "64"
					},
					"t_uint256": {
						"encoding": "inplace",
						"label": "uint256",
						"numberOfBytes": "32"
					}
				}
			},
			"userdoc": {
				"kind": "user",
				"methods": {},
				"version": 1
			}
		}
	}
}